:100000000C945E000C9486000C9486000C94860080
:100010000C9486000C9486000C9428080C9486009E
:100020000C9486000C9486000C94E5060C948F07C3
:100030000C949E060C9486000C9486000C9486000A
:100040000C94FC050C9486000C946C060C944606EB
:100050000C9486000C9486000C9486000C94860008
:100060000C9486000C9486000000000024002700F9
:100070002A0000000000250028002B0004040404CE
:100080000404040402020202020203030303030342
:10009000010204081020408001020408102001021F
:1000A00004081020000000080002010000030407FB
:1000B00000000000000000003A09000B11241FBEE0
:1000C000CFEFD8E0DEBFCDBF12E0A0E0B1E0EEE7B9
:1000D000F6E102C005900D92AC36B107D9F724E0E5
:1000E000ACE6B2E001C01D92A43CB207E1F710E01B
:1000F000CDE5D0E004C02197FE010E941E0BCC3557
:10010000D107C9F70E94B2090C94320B0C9400007D
:1001100090E0FC01EC55FF4F3491FC01E057FF4F9C
:100120002491FC01E458FF4FE491EE2309F43BC015
:10013000332339F1333091F038F43130A9F03230D3
:1001400001F584B58F7D12C0373091F03830A1F0C1
:100150003430B9F4809180008F7D03C0809180009D
:100160008F77809380000DC084B58F7784BD09C0E0
:100170008091B0008F7703C08091B0008F7D809315
:10018000B000F0E0EE0FFF1FEE58FF4FA591B491C5
:100190008FB7F894EC91611103C020952E2301C014
:1001A0002E2B2C938FBF0895CF93DF9390E0FC010B
:1001B000E057FF4F2491FC01E458FF4F84918823BE
:1001C00061F190E0880F991FFC01E859FF4FC5913C
:1001D000D491FC01EE58FF4FA591B491611109C073
:1001E0009FB7F8948881209582238883EC912E23F1
:1001F0000BC0623061F49FB7F8943881822F8095EC
:1002000083238883EC912E2B2C939FBF06C08FB73E
:10021000F894E8812E2B28838FBFDF91CF9108952A
:100220001F93CF93DF93182FEB0161E00E94D4005E
:10023000209711F460E004C0CF3FD10539F461E0AC
:10024000812FDF91CF911F910C948800E12FF0E076
:10025000EC55FF4FE491E330F9F048F4E130B9F0A8
:10026000E230A1F584B5806284BDC8BD34C0E730FA
:10027000E9F0E83019F1E43049F5809180008062BE
:1002800080938000D0938B00C0938A0024C084B5F3
:10029000806884BDC7BD1FC0809180008068809346
:1002A0008000D0938900C093880015C08091B00071
:1002B00080688093B000C093B3000DC08091B000FF
:1002C00080628093B000C093B40005C0C038D105EF
:1002D0000CF0B5CFAFCFDF91CF911F9108953FB70D
:1002E000F89480919A0390919B03A0919C03B09104
:1002F0009D0326B5A89B05C02F3F19F00196A11DAF
:10030000B11D3FBFBA2FA92F982F8827820F911DAB
:10031000A11DB11DBC01CD0142E0660F771F881FF2
:10032000991F4A95D1F70895FC0142835383648352
:10033000758386819781A085B185480F591F6A1FF3
:100340007B1F42875387648775870895CF92DF921A
:10035000EF92FF920F931F93CF93DF936C017A017B
:100360008B01C0E0D0E0CE15DF0589F0D8016D919A
:100370008D01D601ED91FC910190F081E02DC60137
:100380000995892B11F47E0102C02196ECCFC7019B
:10039000DF91CF911F910F91FF90EF90DF90CF9061
:1003A0000895FC01538D448D252F30E0842F90E07B
:1003B000821B930B541710F0CF9608950197089560
:1003C000FC01918D828D981761F0828DDF01A80F5D
:1003D000B11D5D968C91928D9F5F9F73928F90E07F
:1003E00008958FEF9FEF0895FC01918D828D9817EE
:1003F00031F0828DE80FF11D858D90E008958FEF2B
:100400009FEF0895FC01918D228D892F90E0805CF3
:100410009F4F821B91098F73992708958EE993E06E
:100420000E94020221E0892B09F420E0822F089526
:10043000FC01848DDF01A80FB11DA35ABF4F2C9181
:10044000848D90E001968F739927848FA689B78950
:100450002C93A089B1898C9180648C93938D848D29
:10046000981306C00288F389E02D80818F7D8083F8
:100470000895EF92FF920F931F93CF93DF93EC01B8
:1004800081E0888F9B8D8C8D981305C0E889F98950
:10049000808185FD24C0F62E0B8D10E00F5F1F4F6D
:1004A0000F731127E02E8C8DE8120CC00FB607FCDD
:1004B000FACFE889F989808185FFF5CFCE010E94C6
:1004C0001802F1CF8B8DFE01E80FF11DE35AFF4FAB
:1004D000F0820B8FEA89FB898081806207C0EE89F8
:1004E000FF896083E889F98980818064808381E065
:1004F00090E0DF91CF911F910F91FF90EF900895C1
:10050000CF93DF93EC01888D8823C9F0EA89FB89BA
:10051000808185FD05C0A889B9898C9186FD0FC0B1
:100520000FB607FCF5CF808185FFF2CFA889B98986
:100530008C9185FFEDCFCE010E941802E7CFDF91AD
:10054000CF91089580E090E0892B29F00E940E025F
:1005500081110C94000008955091920340919103F1
:10056000852F90E0242F30E0541710F4805B9F4FCC
:10057000821B930B089580919203E09191038E1753
:1005800051F0EF5FE03508F0E0E0F0E0E25CFC4FB6
:10059000808190E008958FEF9FEF089580919203FE
:1005A00090919103891769F09F5F903508F090E072
:1005B000E92FF0E0E25CFC4F80819093910390E0A2
:1005C00008958FEF9FEF0895809190038111FCCFE4
:1005D000089580918F038F5F843408F080E09091BC
:1005E0008E039817E1F32FB7F89490919003992315
:1005F00041F0E82FF0E0EC50FD4F608380938F03D3
:100600001DC081E0809390036093390310923803FA
:1006100082E086BB80916F00826080936F00809142
:1006200080008F7380688093800080918400909117
:100630008500409690938900809388002FBF81E0C9
:1006400090E008958F929F92AF92BF92CF92DF92E7
:10065000EF92FF920F931F93CF93DF93EC01EE8500
:10066000FF85309709F009958FB7F89480903B0487
:1006700090903C04A0903D04B0903E048FBF8E014A
:100680006E012EE1C20ED11CE12CF12C89A99AA990
:100690008E159F0524F1D80153968D919C91549706
:1006A0000097C1F0BFEFEB1AFB0ADC01ED91FC9162
:1006B0000280F381E02DB501A4010995882351F052
:1006C000F80183899489DC01ED91FC910480F58126
:1006D000E02D09950E5F1F4F0C151D05B9F62FB7BC
:1006E000F89480913B0490913C04A0913D04B0911A
:1006F0003E042FBF8E839F83A887B9874A815B8181
:100700006C817D81840F951FA61FB71F8A879B87E9
:10071000AC87BD87DF91CF911F910F91FF90EF9034
:10072000DF90CF90BF90AF909F908F900895FC0185
:1007300083E391E09183808381E0808B1786168626
:1007400012861386148615862FB7F89480913B0481
:1007500090913C04A0913D04B0913E042FBF86834C
:100760009783A087B187F28BE18B85E091E091833D
:10077000808312AA11AADF015396CF01C1961D9260
:100780001D92A817B907D9F74283538364837583F1
:1007900086819781A085B185480F591F6A1F7B1FED
:1007A00042875387648775870895CF93DF93EC0161
:1007B000EE85FF85309709F009952FB7F894809161
:1007C0003B0490913C04A0913D04B0913E042FBFA6
:1007D0008E839F83A887B9874A815B816C817D81E5
:1007E000840F951FA61FB71F8A879B87AC87BD877D
:1007F000DF91CF9108950F931F93FC01028513851C
:1008000024853585401B510B620B730B77FD02C0AD
:10081000808901C080E01F910F910895CF93DF93ED
:1008200061E08EE00E94880060E08FE00E94880016
:1008300061E081E10E94880060E080E10E94880020
:10084000C0910001D0E0BE0185E00E941001BE0110
:1008500086E0DF91CF910C941001CF93DF9360E09D
:100860008EE00E94880061E08FE00E94880060E0D6
:1008700081E10E94880061E080E10E948800C091CF
:100880000001D0E0BE0185E00E941001BE0186E0BB
:10089000DF91CF910C94100160E08EE00E948800FF
:1008A00060E08FE00E94880060E081E10E948800A3
:1008B00060E080E10E94880060E070E085E00E94D6
:1008C000100160E070E086E00C941001089580E073
:1008D00090E008950E94240B6115710579F0FB01E9
:1008E00001900020E9F73197AF01461B570BDC015F
:1008F000ED91FC910280F381E02D099480E090E07D
:100900000895CF93DF93BC018EE993E00E946C04BD
:10091000EC0169E371E08EE993E00E946C048C0FB6
:100920009D1FDF91CF9108950C946C048F929F923C
:10093000AF92BF92CF92DF92EF92FF926CE371E0A1
:100940008FE394E00E9494046EE471E08FE394E0FE
:100950000E9494046DE571E08FE394E00E9494049A
:100960006BE671E08FE394E00E9494046CE771E021
:100970008FE394E00E9494046DE871E08FE394E0CB
:100980000E9494046DEA71E08FE394E00E94940465
:1009900063EB71E08FE394E00E9494040E946F0186
:1009A0004B015C0184E6C82ED12CE12CF12C0E9475
:1009B0006F01DC01CB0188199909AA09BB09883E9E
:1009C0009340A105B10558F021E0C21AD108E10811
:1009D000F10888EE880E83E0981EA11CB11CC1149A
:1009E000D104E104F10419F789EB91E00E9481043C
:1009F0006CEC71E08FE394E0FF90EF90DF90CF908C
:100A0000BF90AF909F908F900C9494048FE394E0EC
:100A10000E94AC021816190664F58FE394E00E9458
:100A2000CE0290916E029923F9F0E0916D028E331F
:100A300079F0AE2FB0E0AE58BD4F8C93EF5FE5314B
:100A400018F4E0936D0215C084E180936D0211C02B
:100A5000F0E0EE58FD4F108210926E0210926D027F
:100A600081E08093980305C08C3319F481E0809372
:100A70006E0280919803882309F4BDC068ED71E08F
:100A80008EE993E00E94940482E792E00E94810440
:100A900062E772E089EE91E00E94290B892B19F43C
:100AA0000E949604A4C062E772E081EF91E00E9488
:100AB000290B892BA9F362E772E087EF91E00E948E
:100AC000290B892B19F41092710214C062E772E0AD
:100AD0008CEF91E00E94290B892B21F481E0809317
:100AE000710285C062E772E081E092E00E94290B0A
:100AF000892B29F410926F021092700273C062E782
:100B000072E086E092E00E94290B892B41F481E09B
:100B100080936F02109270020E942D040FC062E752
:100B200072E086E192E00E94290B892B71F482E049
:100B300080936F02109270020E940E046BE072E0CC
:100B40008FE394E00E94940452C080917202833536
:100B500009F04DC0809173028C3409F048C0209197
:100B60007502022E000C330B2053310988EE93E0FE
:100B7000289FA001299F500D389F500D11242091CE
:100B80007602022E000C330B2053310964E6629F7B
:100B9000C001639F900D1124840F951F209177024F
:100BA000022E000C330B205331096AE0629FA00132
:100BB000639F500D1124840F951F40916F02209167
:100BC0007802022E000C330B20533109820F931F41
:100BD00080930001413049F028F0423041F40E94F6
:100BE0000E0405C00E944C0402C00E942D04109205
:100BF00072021092980308951F920F920FB60F92EF
:100C000011242F933F938F939F93AF93BF93809122
:100C10003B0490913C04A0913D04B0913E0430917E
:100C2000990323E0230F2D3720F40196A11DB11D58
:100C300005C026E8230F0296A11DB11D209399033C
:100C400080933B0490933C04A0933D04B0933E04F6
:100C500080919A0390919B03A0919C03B0919D0376
:100C60000196A11DB11D80939A0390939B03A093BD
:100C70009C03B0939D03BF91AF919F918F913F9142
:100C80002F910F900FBE0F901F9018951F920F92EB
:100C90000FB60F9211242F933F934F935F936F934F
:100CA0007F938F939F93AF93BF93EF93FF938EE9BF
:100CB00093E00E941802FF91EF91BF91AF919F9135
:100CC0008F917F916F915F914F913F912F910F90F5
:100CD0000FBE0F901F9018951F920F920FB60F9294
:100CE00011242F938F939F93EF93FF93E091AE0383
:100CF000F091AF038081E091B403F091B50382FDE0
:100D000012C090818091B7038F5F8F732091B803D9
:100D1000821751F0E091B703F0E0E256FC4F958F57
:100D20008093B70301C08081FF91EF919F918F91D4
:100D30002F910F900FBE0F901F9018951F920F923A
:100D40000FB60F9211242F938F939F93EF93FF93DE
:100D500080916F008B7F80936F00809181008F7BEB
:100D6000809381008091930320913D0320589091BE
:100D70003C03893020F49695922B8F5FFACF9093A5
:100D80003C03809192038F5F803508F080E02091D2
:100D90009103821739F0E82FF0E0E25CFC4F90837A
:100DA0008093920310929303809181008F7B8093B4
:100DB000810010923D03FF91EF919F918F912F91B0
:100DC0000F900FBE0F901F9018951F920F920FB6A5
:100DD0000F9211242F933F934F935F936F937F93C1
:100DE0008F939F93AF93BF93EF93FF938091860070
:100DF0009091870040913D0320918100442331F080
:100E00002F7B2093810010923D0306C02064209325
:100E1000810020E820933D0330919303311125C0D8
:100E200041116CC02091940330919503280F391F14
:100E300030938B0020938A0024E026BB20916F0022
:100E4000246020936F002091960330919703820FC6
:100E5000931F36952795820F931F90933B038093A2
:100E60003A0381E08093930349C040913A03509143
:100E70003B036091960370919703DB01A095B095B9
:100E8000E0913D0320913C03841B950BA817B90703
:100E900068F126952E2B460F571F3F5F861B970B39
:100EA0003930A0F320933C0380916F008B7F8093B7
:100EB0006F00809192038F5F803508F080E0909101
:100EC0009103891749F0E82FF0E090913C03E25C30
:100ED000FC4F908380939203809181008F7B80935D
:100EE000810010923D031092930308C020933C03AD
:100EF00050933B0340933A0330939303FF91EF9158
:100F0000BF91AF919F918F917F916F915F914F9121
:100F10003F912F910F900FBE0F901F9018951F9229
:100F20000F920FB60F9211242F933F934F935F931D
:100F30006F937F938F939F93EF93FF938091900391
:100F40006091390320918800309189004091960387
:100F500050919703909138038A30F8F4240F351F8D
:100F6000893019F0762F717001C071E066958F5F3E
:100F7000791791F390918000772311F0906C02C063
:100F80009F7390689093800030938900209388002D
:100F900070933803609339034AC090918F03E091B6
:100FA0008E039E1319C08A3051F48BE08093900316
:100FB000240F351F30938900209388003AC0109287
:100FC0009003809180008F738093800080916F00E8
:100FD0008D7F80936F002DC0EF5FE43408F0E0E078
:100FE000E0938E03F0E0EC50FD4F90819093390335
:100FF00010923803909180009F73906890938000C6
:101000008A3059F48091960390919703280F391FE5
:10101000309389002093880009C0809184009091CA
:1010200085004096909389008093880081E08093AA
:101030009003FF91EF919F918F917F916F915F91BD
:101040004F913F912F910F900FBE0F901F901895C9
:1010500078941F920F920FB60F921124CF92DF92C5
:10106000FF920F931F932F933F934F935F936F9331
:101070007F938F939F93AF93BF93CF93DF93EF9320
:10108000FF938091F0029091F102A091F202B09151
:10109000F3020196A11DB11D8093F0029093F1021D
:1010A000A093F202B093F3028091EE029091EF02CE
:1010B000892B29F4C0E0DBE0FF24F39429C0809160
:1010C00060008064809360008091ED02882391F33A
:1010D0008091EB029091EC0201979093EC02809347
:1010E000EB028091EB029091EC02892B09F0AAC0EF
:1010F000809160008F7B80936000A4C0DC9F8001A2
:10110000112408571D4FF8018285811106C0CF5F59
:1011100080918702C81790F395C08091F00290915A
:10112000F102A091F202B091F302468157816085ED
:101130007185841B950BA60BB70BB7FDE8CF80918B
:10114000EE029091EF029093EC028093EB02F0920A
:10115000ED02C080D180F60109951092ED02F801F0
:101160008285823009F058C0C0E0DC9FD001112494
:10117000A857BD4F8D919C918C159D0529F0CF5F8F
:10118000809187028C1788F780918702C817D9F160
:10119000809187028230E8F18C2F90918702891725
:1011A00090F5282F30E0A9014F5F5F4FD49FD00109
:1011B000D59FB00D1124A857BD4F4D915C9111974B
:1011C000D29FF001D39FF00D1124E857FD4F5183BA
:1011D00040831A969C911A97928712964D915D9131
:1011E0006D917C9115974283538364837583169622
:1011F0004D915D916D917C911997468357836087DE
:1012000071878F5FCACF8091870281508093870258
:101210007ECF109287027BCF8091F0029091F102F5
:10122000A091F202B091F302F801428153816481EE
:101230007581840F951FA61FB71F86839783A0878C
:10124000B18765CFFF91EF91DF91CF91BF91AF91C2
:101250009F918F917F916F915F914F913F912F91CE
:101260001F910F91FF90DF90CF900F900FBE0F90C6
:101270001F901895CF92DF92EF92FF92EEE9F3E084
:101280001382128288EEC82E83E0D82EE12CF12C36
:10129000C482D582E682F7828FE091E091838083D9
:1012A00085EC90E09587848784EC90E0978786872B
:1012B00080EC90E0918B808B81EC90E0938B828B23
:1012C00082EC90E0958B848B86EC90E0978B868BFC
:1012D000118E128E138E148EE1EBF4E083E391E015
:1012E0009183808381E0808B178616861286138611
:1012F000148615862FB7F89480913B0490913C0496
:10130000A0913D04B0913E042FBF86839783A087B0
:10131000B187F28BE18B128213821482158282874D
:101320009387A487B58740E050E0BA018EE794E048
:101330000E94970340E050E0BA018BE494E00E94E1
:101340009703EFE3F4E013821282C482D582E6822F
:10135000F78281E291E091838083FF90EF90DF90AC
:10136000CF900895789484B5826084BD84B58160FF
:1013700084BD85B5826085BD85B5816085BD809160
:101380006E00816080936E001092810080918100D8
:1013900082608093810080918100816080938100D0
:1013A000809180008160809380008091B100846092
:1013B0008093B1008091B00081608093B0008091F3
:1013C0007A00846080937A0080917A0082608093B2
:1013D0007A0080917A00816080937A0080917A000F
:1013E000806880937A001092C100E091AE03F09182
:1013F000AF0382E08083E091AA03F091AB031082F7
:10140000E091AC03F091AD038FEC80831092B603B2
:10141000E091B203F091B30386E08083E091B003E2
:10142000F091B103808180618083E091B003F091FD
:10143000B103808188608083E091B003F091B103B3
:10144000808180688083E091B003F091B103808156
:101450008F7D80836BE172E08EE993E00E949404BB
:1014600086E292E00E94810463E372E08EE993E0F9
:101470000E9494048EE392E00E94810484E292E050
:101480000E94810481E08093C10484E690E0A0E0A2
:10149000B0E08093B3049093B404A093B504B093E8
:1014A000B6048091B7049091B804A091B904B091AA
:1014B000BA048C599F4FAF4FBF4F8093BB0490939A
:1014C000BC04A093BD04B093BE0486E095E0909365
:1014D000C0048093BF048091C2049091C304A1E929
:1014E000B4E0FD01C191D191209729F029893A8971
:1014F0002817390709F124E0EF3AF20799F780E05D
:1015000090E02D913D91232B99F4880F991FFC01B8
:10151000E258FB4F81EB94E0948B838B8091AF0476
:101520009091B00401969093B0048093AF0404C0EE
:1015300001968F30910529F710926F00109280006C
:1015400081E88093810083E896E0909397038093ED
:1015500096038BE39CE3909395038093940362E05E
:1015600088E00E94D40061E089E00E94880061E088
:1015700089E00E94D400109293031092920310927B
:1015800091031092900310928F0310928E0380E2C9
:1015900086BB80936F008AE492E00E9481041092DF
:1015A000980361E08EE00E94D40061E08FE00E9429
:1015B000D40061E081E10E94D40061E080E10E94FA
:1015C000D40061E086E00E94D40061E085E00E94E2
:1015D000D40060E08EE00E94880060E08FE00E940E
:1015E000880060E081E10E94880060E080E10E9464
:1015F00088008EE794E00E9422030E94A202F9CFA5
:1016000081E291E09093400480933F0480916F00C9
:101610008B7F80936F0080916F008F7D80936F0030
:101620008091910380939203809190038111FCCF6C
:1016300080916F008D7F80936F000895EE0FFF1FE4
:101640000590F491E02D099481E090E0F8940C94D9
:10165000320BFB01DC018D91019080190110D9F34F
:10166000990B089510E0CDE5D0E004C0FE010E9482
:0E1670001E0B2196CE35D107C9F7F894FFCF97
:10167E00FF000000009401FB03220300000000396C
:10168E0002A601D10180020202E001F40100000075
:10169E0000E902A6016704E402AC02CE02BB02001E
:1016AE000000009401FB03D5030D0A003C542C529C
:1016BE006F76657220436F6E74726F6C3E003C499C
:1016CE002C53532C312C4D41494E533E003C492C4A
:1016DE0053532C322C53544F503E003C492C425401
:1016EE002C312C4657442C4657443E003C492C4244
:1016FE00542C322C4257442C4257443E003C492C29
:10170E00534C2C332C73706565642C35302C32356C
:10171E00352C3235353235303233303E003C522C9A
:10172E00353E003C454F493E00496E697420636F5B
:10173E006D6D616E64732073656E74003C442C5342
:10174E004C2C312C35303E007265636569766564CC
:10175E004368617273203D2000434F4E4E45435403
:10176E0000524553455400535331300053533131D9
:10177E0000535332300042543131003C442C535309
:10178E002C322C313E004254323100536B6574635F
:10179E00683A202020002E2E5C726F7665722E69BC
:1017AE006E6F0055706C6F616465643A20004D6118
:1017BE0072203232203230313800416C74536F66F1
:1017CE007453657269616C20737461727465642000
:0C17DE0061742039363030202A2A2A009D
:00000001FF
