:100000000C945E000C9486000C9486000C94860080
:100010000C9486000C9486000C9486000C94860048
:100020000C9486000C9486000C94E5060C948F07C3
:100030000C949E060C9486000C9486000C9486000A
:100040000C94FC050C9486000C946C060C944606EB
:100050000C9486000C9486000C9486000C94860008
:100060000C9486000C9486000000000024002700F9
:100070002A0000000000250028002B0004040404CE
:100080000404040402020202020203030303030342
:10009000010204081020408001020408102001021F
:1000A00004081020000000080002010000030407FB
:1000B00000000000000000002808EE0911241FBE07
:1000C000CFEFD8E0DEBFCDBF12E0A0E0B1E0EAE5BF
:1000D000F4E102C005900D92AC36B107D9F724E0E7
:1000E000ACE6B2E001C01D92A635B207E1F710E020
:1000F000CDE5D0E004C02197FE010E940C0ACC356A
:10010000D107C9F70E94A0080C94200A0C940000A3
:1001100090E0FC01EC55FF4F3491FC01E057FF4F9C
:100120002491FC01E458FF4FE491EE2309F43BC015
:10013000332339F1333091F038F43130A9F03230D3
:1001400001F584B58F7D12C0373091F03830A1F0C1
:100150003430B9F4809180008F7D03C0809180009D
:100160008F77809380000DC084B58F7784BD09C0E0
:100170008091B0008F7703C08091B0008F7D809315
:10018000B000F0E0EE0FFF1FEE58FF4FA591B491C5
:100190008FB7F894EC91611103C020952E2301C014
:1001A0002E2B2C938FBF0895CF93DF9390E0FC010B
:1001B000E057FF4F2491FC01E458FF4F84918823BE
:1001C00061F190E0880F991FFC01E859FF4FC5913C
:1001D000D491FC01EE58FF4FA591B491611109C073
:1001E0009FB7F8948881209582238883EC912E23F1
:1001F0000BC0623061F49FB7F8943881822F8095EC
:1002000083238883EC912E2B2C939FBF06C08FB73E
:10021000F894E8812E2B28838FBFDF91CF9108952A
:100220001F93CF93DF93182FEB0161E00E94D4005E
:10023000209711F460E004C0CF3FD10539F461E0AC
:10024000812FDF91CF911F910C948800E12FF0E076
:10025000EC55FF4FE491E330F9F048F4E130B9F0A8
:10026000E230A1F584B5806284BDC8BD34C0E730FA
:10027000E9F0E83019F1E43049F5809180008062BE
:1002800080938000D0938B00C0938A0024C084B5F3
:10029000806884BDC7BD1FC0809180008068809346
:1002A0008000D0938900C093880015C08091B00071
:1002B00080688093B000C093B3000DC08091B000FF
:1002C00080628093B000C093B40005C0C038D105EF
:1002D0000CF0B5CFAFCFDF91CF911F9108953FB70D
:1002E000F89480912C0390912D03A0912E03B0914E
:1002F0002F0326B5A89B05C02F3F19F00196A11D1D
:10030000B11D3FBFBA2FA92F982F8827820F911DAB
:10031000A11DB11DBC01CD0142E0660F771F881FF2
:10032000991F4A95D1F70895FC0142835383648352
:10033000758386819781A085B185480F591F6A1FF3
:100340007B1F42875387648775870895CF92DF921A
:10035000EF92FF920F931F93CF93DF936C017A017B
:100360008B01C0E0D0E0CE15DF0589F0D8016D919A
:100370008D01D601ED91FC910190F081E02DC60137
:100380000995892B11F47E0102C02196ECCFC7019B
:10039000DF91CF911F910F91FF90EF90DF90CF9061
:1003A0000895FC01538D448D252F30E0842F90E07B
:1003B000821B930B541710F0CF9608950197089560
:1003C000FC01918D828D981761F0828DDF01A80F5D
:1003D000B11D5D968C91928D9F5F9F73928F90E07F
:1003E00008958FEF9FEF0895FC01918D828D9817EE
:1003F00031F0828DE80FF11D858D90E008958FEF2B
:100400009FEF0895FC01918D228D892F90E0805CF3
:100410009F4F821B91098F739927089580E393E082
:100420000E94020221E0892B09F420E0822F089526
:10043000FC01848DDF01A80FB11DA35ABF4F2C9181
:10044000848D90E001968F739927848FA689B78950
:100450002C93A089B1898C9180648C93938D848D29
:10046000981306C00288F389E02D80818F7D8083F8
:100470000895EF92FF920F931F93CF93DF93EC01B8
:1004800081E0888F9B8D8C8D981305C0E889F98950
:10049000808185FD24C0F62E0B8D10E00F5F1F4F6D
:1004A0000F731127E02E8C8DE8120CC00FB607FCDD
:1004B000FACFE889F989808185FFF5CFCE010E94C6
:1004C0001802F1CF8B8DFE01E80FF11DE35AFF4FAB
:1004D000F0820B8FEA89FB898081806207C0EE89F8
:1004E000FF896083E889F98980818064808381E065
:1004F00090E0DF91CF911F910F91FF90EF900895C1
:10050000CF93DF93EC01888D8823C9F0EA89FB89BA
:10051000808185FD05C0A889B9898C9186FD0FC0B1
:100520000FB607FCF5CF808185FFF2CFA889B98986
:100530008C9185FFEDCFCE010E941802E7CFDF91AD
:10054000CF91089580E090E0892B29F00E940E025F
:1005500081110C94000008955091240340912303CD
:10056000852F90E0242F30E0541710F4805B9F4FCC
:10057000821B930B089580912403E09123038E172F
:1005800051F0EF5FE03508F0E0E0F0E0E053FD4FC0
:10059000808190E008958FEF9FEF0895809124036C
:1005A00090912303891769F09F5F903508F090E0E0
:1005B000E92FF0E0E053FD4F80819093230390E01A
:1005C00008958FEF9FEF0895809122038111FCCF52
:1005D0000895809121038F5F843408F080E090912A
:1005E00020039817E1F32FB7F894909122039923F1
:1005F00041F0E82FF0E0EA57FD4F6083809321033C
:100600001DC081E0809322036093CB021092CA0246
:1006100082E086BB80916F00826080936F00809142
:1006200080008F7380688093800080918400909117
:100630008500409690938900809388002FBF81E0C9
:1006400090E008958F929F92AF92BF92CF92DF92E7
:10065000EF92FF920F931F93CF93DF93EC01EE8500
:10066000FF85309709F009958FB7F8948090CD03F6
:100670009090CE03A090CF03B090D0038FBF8E0197
:100680006E012EE1C20ED11CE12CF12C89A99AA990
:100690008E159F0524F1D80153968D919C91549706
:1006A0000097C1F0BFEFEB1AFB0ADC01ED91FC9162
:1006B0000280F381E02DB501A4010995882351F052
:1006C000F80183899489DC01ED91FC910480F58126
:1006D000E02D09950E5F1F4F0C151D05B9F62FB7BC
:1006E000F8948091CD039091CE03A091CF03B09167
:1006F000D0032FBF8E839F83A887B9874A815B81F0
:100700006C817D81840F951FA61FB71F8A879B87E9
:10071000AC87BD87DF91CF911F910F91FF90EF9034
:10072000DF90CF90BF90AF909F908F900895FC0185
:1007300083E391E09183808381E0808B1786168626
:1007400012861386148615862FB7F8948091CD03F0
:100750009091CE03A091CF03B091D0032FBF868399
:100760009783A087B187F28BE18B85E091E091833D
:10077000808312AA11AADF015396CF01C1961D9260
:100780001D92A817B907D9F74283538364837583F1
:1007900086819781A085B185480F591F6A1F7B1FED
:1007A00042875387648775870895CF93DF93EC0161
:1007B000EE85FF85309709F009952FB7F894809161
:1007C000CD039091CE03A091CF03B091D0032FBF62
:1007D0008E839F83A887B9874A815B816C817D81E5
:1007E000840F951FA61FB71F8A879B87AC87BD877D
:1007F000DF91CF9108950F931F93FC01028513851C
:1008000024853585401B510B620B730B77FD02C0AD
:10081000808901C080E01F910F910895CF93DF93ED
:1008200061E08EE00E94880060E08FE00E94880016
:1008300061E081E10E94880060E080E10E94880020
:10084000C0910001D0E0BE0185E00E941001BE0110
:1008500086E0DF91CF910C941001CF93DF9360E09D
:100860008EE00E94880061E08FE00E94880060E0D6
:1008700081E10E94880061E080E10E948800C091CF
:100880000001D0E0BE0185E00E941001BE0186E0BB
:10089000DF91CF910C94100160E08EE00E948800FF
:1008A00060E08FE00E94880060E081E10E948800A3
:1008B00060E080E10E94880060E070E085E00E94D6
:1008C000100160E070E086E00C941001089580E073
:1008D00090E008950E94120A6115710579F0FB01FC
:1008E00001900020E9F73197AF01461B570BDC015F
:1008F000ED91FC910280F381E02D099480E090E07D
:100900000895CF93DF93BC0180E393E00E946C04D1
:10091000EC0169E371E080E393E00E946C048C0FCA
:100920009D1FDF91CF9108950C946C048F929F923C
:10093000AF92BF92CF92DF92EF92FF926CE371E0A1
:1009400081ED93E00E9494046EE471E081ED93E008
:100950000E9494046DE571E081ED93E00E9494049F
:100960006BE671E081ED93E00E9494046CE771E026
:1009700081ED93E00E9494046DE871E081ED93E0D5
:100980000E9494046DEA71E081ED93E00E9494046A
:1009900063EB71E081ED93E00E9494040E946F018B
:1009A0004B015C0184E6C82ED12CE12CF12C0E9475
:1009B0006F01DC01CB0188199909AA09BB09883E9E
:1009C0009340A105B10558F021E0C21AD108E10811
:1009D000F10888EE880E83E0981EA11CB11CC1149A
:1009E000D104E104F10419F789EB91E00E9481043C
:1009F0006CEC71E081ED93E0FF90EF90DF90CF9091
:100A0000BF90AF909F908F900C94940481ED93E0F1
:100A10000E94AC021816190664F581ED93E00E945D
:100A2000CE0290916D029923F9F0E0916C028E3321
:100A300079F0AE2FB0E0AF58BD4F8C93EF5FE5314A
:100A400018F4E0936C0215C084E180936C0211C02D
:100A5000F0E0EF58FD4F108210926D0210926C0280
:100A600081E080932A0305C08C3319F481E08093E0
:100A70006D0280912A03882309F4BDC068ED71E0FE
:100A800080E393E00E94940481E792E00E94810455
:100A900061E772E089EE91E00E94170A892B19F450
:100AA0000E949604A4C061E772E081EF91E00E9489
:100AB000170A892BA9F361E772E087EF91E00E94A2
:100AC000170A892B19F41092700214C061E772E0C2
:100AD0008CEF91E00E94170A892B21F481E080932A
:100AE000700285C061E772E081E092E00E94170A1F
:100AF000892B29F410926E0210926F0273C061E785
:100B000072E086E092E00E94170A892B41F481E0AE
:100B100080936E0210926F020E942D040FC061E755
:100B200072E086E192E00E94170A892B71F482E05C
:100B300080936E0210926F020E940E046BE072E0CE
:100B400081ED93E00E94940452C08091710283353C
:100B500009F04DC0809172028C3409F048C0209198
:100B60007402022E000C330B2053310988EE93E0FF
:100B7000289FA001299F500D389F500D11242091CE
:100B80007502022E000C330B2053310964E6629F7C
:100B9000C001639F900D1124840F951F2091760250
:100BA000022E000C330B205331096AE0629FA00132
:100BB000639F500D1124840F951F40916E02209168
:100BC0007702022E000C330B20533109820F931F42
:100BD00080930001413049F028F0423041F40E94F6
:100BE0000E0405C00E944C0402C00E942D04109205
:100BF000710210922A0308951F920F920FB60F925E
:100C000011242F933F938F939F93AF93BF93809122
:100C1000CD039091CE03A091CF03B091D00330913A
:100C20002B0323E0230F2D3720F40196A11DB11DC6
:100C300005C026E8230F0296A11DB11D20932B03AA
:100C40008093CD039093CE03A093CF03B093D003B2
:100C500080912C0390912D03A0912E03B0912F032E
:100C60000196A11DB11D80932C0390932D03A09399
:100C70002E03B0932F03BF91AF919F918F913F911E
:100C80002F910F900FBE0F901F9018951F920F92EB
:100C90000FB60F9211242F933F934F935F936F934F
:100CA0007F938F939F93AF93BF93EF93FF9380E3D3
:100CB00093E00E941802FF91EF91BF91AF919F9135
:100CC0008F917F916F915F914F913F912F910F90F5
:100CD0000FBE0F901F9018951F920F920FB60F9294
:100CE00011242F938F939F93EF93FF93E0914003F1
:100CF000F09141038081E0914603F091470382FD2A
:100D000012C09081809149038F5F8F7320914A03B5
:100D1000821751F0E0914903F0E0E05DFC4F958FC0
:100D20008093490301C08081FF91EF919F918F9142
:100D30002F910F900FBE0F901F9018951F920F923A
:100D40000FB60F9211242F938F939F93EF93FF93DE
:100D500080916F008B7F80936F00809181008F7BEB
:100D600080938100809125032091CF02205890919B
:100D7000CE02893020F49695922B8F5FFACF909314
:100D8000CE02809124038F5F803508F080E02091AF
:100D90002303821739F0E82FF0E0E053FD4F9083F2
:100DA0008093240310922503809181008F7B809390
:100DB00081001092CF02FF91EF919F918F912F911F
:100DC0000F900FBE0F901F9018951F920F920FB6A5
:100DD0000F9211242F933F934F935F936F937F93C1
:100DE0008F939F93AF93BF93EF93FF938091860070
:100DF000909187004091CF0220918100442331F0EF
:100E00002F7B209381001092CF0206C02064209394
:100E1000810020E82093CF0230912503311125C0B5
:100E200041116CC02091260330912703280F391FF0
:100E300030938B0020938A0024E026BB20916F0022
:100E4000246020936F002091280330912903820FA2
:100E5000931F36952795820F931F9093CD02809311
:100E6000CC0281E08093250349C04091CC0250918F
:100E7000CD026091280370912903DB01A095B09504
:100E8000E091CF022091CE02841B950BA817B907E1
:100E900068F126952E2B460F571F3F5F861B970B39
:100EA0003930A0F32093CE0280916F008B7F809326
:100EB0006F00809124038F5F803508F080E090916F
:100EC0002303891749F0E82FF0E09091CE02E05318
:100ED000FD4F908380932403809181008F7B8093CA
:100EE00081001092CF021092250308C02093CE02F9
:100EF0005093CD024093CC0230932503FF91EF91A4
:100F0000BF91AF919F918F917F916F915F914F9121
:100F10003F912F910F900FBE0F901F9018951F9229
:100F20000F920FB60F9211242F933F934F935F931D
:100F30006F937F938F939F93EF93FF9380912203FF
:100F40006091CB0220918800309189004091280364
:100F5000509129039091CA028A30F8F4240F351F6A
:100F6000893019F0762F717001C071E066958F5F3E
:100F7000791791F390918000772311F0906C02C063
:100F80009F7390689093800030938900209388002D
:100F90007093CA026093CB024AC090912103E09102
:100FA00020039E1319C08A3051F48BE080932203F2
:100FB000240F351F30938900209388003AC0109287
:100FC0002203809180008F738093800080916F0056
:100FD0008D7F80936F002DC0EF5FE43408F0E0E078
:100FE000E0932003F0E0EA57FD4F90819093CB020D
:100FF0001092CA02909180009F7390689093800035
:101000008A3059F48091280390912903280F391FC1
:10101000309389002093880009C0809184009091CA
:1010200085004096909389008093880081E08093AA
:101030002203FF91EF919F918F917F916F915F912B
:101040004F913F912F910F900FBE0F901F901895C9
:10105000CF92DF92EF92FF92E0E3F3E013821282ED
:1010600088EEC82E83E0D82EE12CF12CC482D582E4
:10107000E682F7828FE091E09183808385EC90E0B7
:101080009587848784EC90E09787868780EC90E052
:10109000918B808B81EC90E0938B828B82EC90E043
:1010A000958B848B86EC90E0978B868B118E128EBD
:1010B000138E148EE3E4F4E083E391E09183808364
:1010C00081E0808B17861686128613861486158615
:1010D0002FB7F8948091CD039091CE03A091CF03C8
:1010E000B091D0032FBF86839783A087B187F28BFF
:1010F000E18B128213821482158282879387A487E0
:10110000B58740E050E0BA0180E194E00E94970387
:1011100040E050E0BA018DED93E00E949703E1EDCD
:10112000F3E013821282C482D582E682F78281E2E2
:1011300091E091838083FF90EF90DF90CF900895AE
:10114000789484B5826084BD84B5816084BD85B5A2
:10115000826085BD85B5816085BD80916E008160AE
:1011600080936E0010928100809181008260809354
:101170008100809181008160809381008091800056
:101180008160809380008091B10084608093B10081
:101190008091B00081608093B00080917A0084607B
:1011A00080937A0080917A00826080937A008091A7
:1011B0007A00816080937A0080917A0080688093C1
:1011C0007A001092C100E0914003F091410382E067
:1011D0008083E0913C03F0913D031082E0913E0357
:1011E000F0913F038FEC808310924803E091440319
:1011F000F091450386E08083E0914203F091430340
:10120000808180618083E0914203F091430380817B
:1012100088608083E0914203F0914303808180687D
:101220008083E0914203F091430380818F7D80832E
:101230006BE172E080E393E00E94940486E292E026
:101240000E94810463E372E080E393E00E949404CF
:101250008EE392E00E94810484E292E00E94810485
:1012600081E08093530484E690E0A0E0B0E08093B6
:10127000450490934604A0934704B093480480919A
:10128000490490914A04A0914B04B0914C048C59AC
:101290009F4FAF4FBF4F80934D0490934E04A09348
:1012A0004F04B093500486E095E0909352048093ED
:1012B00051048091540490915504A3E2B4E0FD01DF
:1012C000C191D191209729F029893A8928173907A6
:1012D00009F124E0E134F20799F780E090E02D91E4
:1012E0003D91232B99F4880F991FFC01E05FFB4F80
:1012F00083E494E0948B838B809141049091420429
:101300000196909342048093410404C001968F306B
:10131000910529F710926F001092800081E8809368
:10132000810083E896E090932903809328038BE360
:101330009CE3909327038093260362E088E00E9459
:10134000D40061E089E00E94880061E089E00E94A9
:10135000D4001092250310922403109223031092BC
:101360002203109221031092200380E286BB809317
:101370006F008AE492E00E94810410922A0361E0E7
:101380008EE00E94D40061E08FE00E94D40061E012
:1013900081E10E94D40061E080E10E94D40061E01C
:1013A00086E00E94D40061E085E00E94D40060E005
:1013B0008EE00E94880060E08FE00E94880060E07C
:1013C00081E10E94880060E080E10E94880080E165
:1013D00094E00E9422030E94A202F9CF81E291E0F0
:1013E0009093D2038093D10380916F008B7F809381
:1013F0006F0080916F008F7D80936F008091230339
:1014000080932403809122038111FCCF80916F008F
:101410008D7F80936F000895EE0FFF1F0590F4916C
:10142000E02D099481E090E0F8940C94200AFB01EF
:10143000DC018D91019080190110D9F3990B089569
:1014400010E0CDE5D0E004C0FE010E940C0A219618
:0A145000CE35D107C9F7F894FFCF9D
:10145A00FF000000009401FB032203000000003992
:10146A0002A601D10180020202E001F4010000009B
:10147A0000E902A6016704E402AC02CE02BB020044
:10148A000000009401FB03D5030D0A003C542C52C2
:10149A006F76657220436F6E74726F6C3E003C49C2
:1014AA002C53532C312C4D41494E533E003C492C70
:1014BA0053532C322C53544F503E003C492C425427
:1014CA002C312C4657442C4657443E003C492C426A
:1014DA00542C322C4257442C4257443E003C492C4F
:1014EA00534C2C332C73706565642C35302C323593
:1014FA00352C3235353235303233303E003C522CC1
:10150A00353E003C454F493E00496E697420636F81
:10151A006D6D616E64732073656E74003C442C5368
:10152A004C2C312C35303E007265636569766564F2
:10153A004368617273203D2000434F4E4E45435429
:10154A0000524553455400535331300053533131FF
:10155A0000535332300042543131003C442C53532F
:10156A002C322C313E004254323100536B65746385
:10157A00683A202020002E2E5C726F7665722E69E2
:10158A006E6F0055706C6F616465643A20004D613E
:10159A0072203232203230313800416C74536F6617
:1015AA007453657269616C20737461727465642026
:0C15BA0061742039363030202A2A2A00C3
:00000001FF
