:100000000C94A9000C94D1000C94D1000C94D10054
:100010000C94D1000C94D1000C942C0E0C94D100B3
:100020000C94D1000C94D1000C94E90C0C94930D19
:100030000C94A20C0C94D1000C94D1000C94D1001F
:100040000C94A41A0C94D1000C9419190C94F31864
:100050000C94D1000C94D1000C94D1000C94D100DC
:100060000C94D1000C94D100691C6C1C6F1C721C88
:10007000751C781C7B1C036EDB363D9A9999993D63
:10008000ABAAAA2A3E000000803F084AD73B3BCEDD
:10009000016E84BCBFFDC12F3D6C74319ABD568387
:1000A0003DDA3D00C77F11BED9E4BB4C3E916BAA3F
:1000B000AABE000000803F072C7AA5BA6CC590DA72
:1000C0003B9365FC8BBC53F810FD3C5692834DBDB1
:1000D000879D3AB63DCBC9BF5BBE73DA0FC93F05FA
:1000E000A84CCDB2D44EB93836A9020C50B991867D
:1000F00088083CA6AAAA2ABE000000803F00000093
:100100000000240027002A0000000000250028002D
:100110002B00040404040404040402020202020288
:1001200003030303030301020408102040800102BB
:10013000040810200102040810200000000800023A
:100140000100000304070000000000000000CB1CB9
:10015000EE1A11241FBECFEFD8E0DEBFCDBF14E0F2
:10016000A0E0B1E0EEEBF5E402C005900D92AE30F8
:10017000B107D9F726E0AEE0B4E001C01D92A4318A
:10018000B207E1F710E0C8EAD0E004C02197FE0111
:100190000E947721C73AD107C9F70E940C1B0C9423
:1001A000D2220C940000809131058111FCCF08957A
:1001B000809130058F5F843408F080E090912F05A6
:1001C0009817E1F32FB7F89490913105992341F0F6
:1001D000E82FF0E0E65DFB4F6083809330051DC0A3
:1001E00081E08093310560936F0410926E0482E089
:1001F00086BB80916F00826080936F008091800049
:100200008F73806880938000809184009091850036
:10021000409690938900809388002FBF81E090E002
:100220000895FC01EA5AFF4F80819181DC01ED9134
:10023000FC910280F381E02D0994CF93DF93EC01D0
:10024000FC01EE5AFF4F80819181DC01ED91FC9120
:100250000284F385E02D0995CC5ADF4F888199817E
:10026000DC01ED91FC910284F385E02DDF91CF91CB
:10027000099408950895CF93DF93EC01FC01EE5AA1
:10028000FF4F80819181DC01ED91FC910280F3812F
:10029000E02D0995882359F0CC5ADF4F8881998148
:1002A000DC01ED91FC910280F381E02D099580E065
:1002B000DF91CF9108953F924F925F926F927F921C
:1002C0008F929F92AF92BF92CF92DF92EF92FF9266
:1002D0000F931F93CF93DF93CDB7DEB73C01362E3C
:1002E000DC0113965C934E93129715963C932E93D4
:1002F000149717961C930E9316971996FC92EE92EC
:1003000018971B96DC92CE921A971D96BC92AE92CD
:100310001C971F969C928E921E978C899D89519650
:100320009C938E935097F301EE5AFF4F80819181F9
:100330002301B2E14B0E511CDC01ED91FC917301E4
:10034000B2E2EB0EF11C8301025E1F4F9301265EA9
:100350003F4FA3014A5E5F4F5F924F920190F08141
:10036000E02D42015201620109950F900F90882300
:10037000F1F0F301EC5AFF4F80819181DC01ED91A6
:10038000FC917301B2E3EB0EF11C005F1F4F930170
:10039000265D3F4FA3014A5D5F4F5F924F920190F0
:1003A000F081E02D632D09950F900F9001C080E042
:1003B000DF91CF911F910F91FF90EF90DF90CF9041
:1003C000BF90AF909F908F907F906F905F904F9075
:1003D0003F90089582E0089580E0089561EA71E019
:1003E0008BEF95E00E94F11863EB71E08BEF95E0E5
:1003F0000E94F11862EC71E08BEF95E00E94F11819
:1004000060ED71E08BEF95E00E94F11861EE71E014
:100410008BEF95E00E94F11862EF71E08BEF95E0B1
:100420000E94F11862E172E08BEF95E00E94F118F2
:1004300068E172E08BEF95E00E94F11864E670E0ED
:1004400080E090E00E946A1A8EE192E00E944B19CF
:1004500061E372E08BEF95E00C94F118CF93DF939A
:1004600061E08EE00E945E1960E08FE00E945E19FC
:1004700061E081E10E945E1960E080E10E945E1906
:10048000C0910001D0E0BE0185E00E94E619BE01E6
:1004900086E0DF91CF910C94E619CF93DF9360E073
:1004A0008EE00E945E1961E08FE00E945E1960E0BC
:1004B00081E10E945E1961E080E10E945E19C091B5
:1004C0000001D0E0BE0185E00E94E619BE0186E091
:1004D000DF91CF910C94E61960E08EE00E945E19E6
:1004E00060E08FE00E945E1960E081E10E945E1989
:1004F00060E080E10E945E1960E070E085E00E94AB
:10050000E61960E070E086E00C94E6198BEF95E068
:100510000E94A2181816190664F58BEF95E00E9448
:10052000C41890910F049923F9F0E0910E048E33D2
:1005300079F0AE2FB0E0AD5EBB4F8C93EF5FE5314D
:1005400018F4E0930E0415C084E180930E0411C0EA
:10055000F0E0ED5EFB4F108210920F0410920E043B
:1005600081E08093390505C08C3319F481E08093D4
:100570000F0480913905882309F4BDC06DE372E052
:100580008AE395E00E94F11883E194E00E944B1900
:1005900063E174E08EE492E00E94C922892B19F491
:1005A0000E94EE01A4C063E174E086E592E00E943F
:1005B000C922892BA9F363E174E08CE592E00E94E3
:1005C000C922892B19F41092120414C063E174E05B
:1005D00081E692E00E94C922892B21F481E0809378
:1005E000120485C063E174E086E692E00E94C922AD
:1005F000892B29F4109210041092110473C063E146
:1006000074E08BE692E00E94C922892B41F481E0DC
:1006100080931004109211040E944D020FC063E1F8
:1006200074E08BE792E00E94C922892B71F482E08A
:1006300080931004109211040E942E0260E772E071
:100640008BEF95E00E94F11852C08091130483351E
:1006500009F04DC0809114048C3409F048C02091F9
:100660001604022E000C330B2053310988EE93E060
:10067000289FA001299F500D389F500D11242091D3
:100680001704022E000C330B2053310964E6629FDD
:10069000C001639F900D1124840F951F20911804B1
:1006A000022E000C330B205331096AE0629FA00137
:1006B000639F500D1124840F951F409110042091C9
:1006C0001904022E000C330B20533109820F931FA3
:1006D00080930001413049F028F0423041F40E94FB
:1006E0002E0205C00E946C0202C00E944D021092B0
:1006F00013041092390508952F923F924F925F9202
:100700006F927F928F929F92AF92BF92CF92DF9221
:10071000EF92FF920F931F93CF93DF93CDB7DEB786
:100720006B970FB6F894DEBF0FBECDBF9B8F8A8F3D
:10073000698FFC01EE5AFF4F80819181DC01ED91C0
:10074000FC910480F581E02D61E00995EA8DFB8D37
:10075000EC5AFF4F80819181DC01ED91FC91048086
:10076000F581E02D61E009950E94451A6B017C013D
:10077000EA8DFB8DEA5BFF4F6083718382839383F5
:100780000A8D1B8D065B1F4FF80180819181A2812C
:10079000B381A7019601281B390B4A0B5B0BCA01D9
:1007A000B9010E942D1F20E034E244E759E40E9481
:1007B000BB1EFB01AA8DBB8DA25BBF4FAB01682F97
:1007C000792F4D935D936D937C931397D801CD92C0
:1007D000DD92ED92FC921397AA8DBB8DAA5ABF4F62
:1007E0004D905C90D2016D907C90AA8DBB8D9696B9
:1007F0008D909D90AD90BC9099975E96CD90DD9038
:10080000ED90FC9091975A960D911D912D913C91F0
:100810005D9756964D915D916D917C9159979F93FF
:100820008F93FF93EF9351968C9151978F9350969E
:100830008C9150978F931F968C911F978F931E9634
:100840008C911E978F931D968C911D978F931C965C
:100850008C911C978F931B968C911B978F931A9654
:100860008C911A978F93FD01FE9683818F938281DD
:100870008F9381818F9380818F93DD968C91DD970B
:100880008F93DC968C91DC978F93DB968C91DB9722
:100890008F93DA968C91DA978F93D9968C91D9971A
:1008A0008F93D8968C91D8978F93D7968C91D79712
:1008B0008F93D6968C91D6978F93D1968C91D19712
:1008C0008F93D0968C91D0978F939F968C919F9772
:1008D0008F939E968C919E978F939D968C919D97CA
:1008E0008F939C968C919C978F939B968C919B97C2
:1008F0008F939A968C918F93F30160807180C201DF
:10090000F30109950FB6F894DEBF0FBECDBF898DF8
:100910008150823048F080EE9EE2A5E6B2E48D87F9
:100920009E87AF87B88B08C020E030E040E85FE3E7
:100930002D873E874F87588BAA8DBB8D12960D91C0
:100940001C9113971C96ED91FC911D97FA83E983F6
:1009500050962D913C9151973A8B298B1A964D9137
:100960005C911B975E834D831E968D919C911F9782
:100970009C8B8B8BD9012D913D914D915C91608128
:100980007181828193810E9481206B017C01EB89BE
:10099000FC892081318142815381AD81BE816D917D
:1009A0007D918D919C910E9481209B01AC01C7019A
:1009B000B6010E94B71D9B01AC010E94B81D0E94A8
:1009C000241E90582D853E854F8558890E94812090
:1009D000F8016083718382839383AA8DBB8D149603
:1009E0002D903C901597ED81FE81C080D180E280F2
:1009F000F380A981BA818D909D90AD90BC90AB8918
:100A0000BC892D913D914D915C9129873A874B8707
:100A10005C87A989BA892D913D914D915C912D8B6F
:100A20003E8B4F8B588FA7019601C701B6010E94DC
:100A300081202B013C01A5019401C501B4010E9454
:100A400081209B01AC01C301B2010E94B71D2B01A3
:100A50003C0129853A854B855C85CA01B9010E9414
:100A600081209B01AC01C301B2010E94B71D2B0183
:100A70003C012D893E894F89588DCA01B9010E94D8
:100A800081209B01AC01C301B2010E94B81D2B0162
:100A90003C01A5019401C701B6010E9481206B01B0
:100AA0007C012D893E894F89588D69857A858B8592
:100AB0009C850E9481209B01AC01C701B6010E9468
:100AC000B81D9B01AC010E94B81DA30192010E94B8
:100AD000521E2D853E854F8558890E948120F10147
:100AE0006083718382839383AA8DBB8D16960D904C
:100AF000BC91A02DBA87A987AD81BE812D913D9172
:100B00004D915C912D833E834F835887E981FA8113
:100B1000C080D180E280F380AB89BC898D909D90AC
:100B2000AD90BC90A989BA892D913D914D915C9170
:100B300029833A834B835C832D813E814F81588585
:100B4000CA01B9010E9481202B013C01A701960135
:100B5000C701B6010E9481209B01AC01C301B20113
:100B60000E94B81D2B013C01A5019401C501B401EF
:100B70000E9481209B01AC01C301B2010E94B71DFC
:100B80002B013C0129813A814B815C81CA01B90169
:100B90000E9481209B01AC01C301B2010E94B71DDC
:100BA0002B013C01A5019401C701B6010E948120DF
:100BB0006B017C0129813A814B815C816D817E8151
:100BC0008F8198850E9481209B01AC01C701B601ED
:100BD0000E94B81D9B01AC010E94B81DA3019201A7
:100BE0000E94521E2D853E854F8558890E94812086
:100BF000E985FA856083718382839383EA8DFB8D17
:100C000082A193A1A4A1B5A120853185F90180839A
:100C10009183A283B383F98DF23009F07EC02BED6E
:100C20003FE049EC5FE3D8016D917D918D919C91FE
:100C30000E94B81D6B017C01F1012081318142814C
:100C400053816BED7FE089EC9FE30E94B71D4B0160
:100C50005C01C701B6010E94B61E9B01AC01AA8DC2
:100C6000BB8D56966D917D918D919C9159970E9467
:100C7000B71D23EC35EF4CE151E40E948120F801CF
:100C80006083718382839383C501B4010E94B61E81
:100C90002B013C01C701B6010E94EE206B017C01D3
:100CA0009B01AC01C301B2010E9481209B01AC01F8
:100CB000AA8DBB8D5A966D917D918D919C915D977A
:100CC0000E94B71D23EC35EF4CE151E40E948120D6
:100CD000F1016083718382839383C501B4010E9413
:100CE000EE20A70196010E9481209B01AC01AA8DF4
:100CF000BB8D5E966D917D918D919C9191970E9497
:100D0000B71D23EC35EF4CE151E40E948120E985C9
:100D1000FA8560837183828393836B960FB6F89410
:100D2000DEBF0FBECDBFDF91CF911F910F91FF901E
:100D3000EF90DF90CF90BF90AF909F908F907F907B
:100D40006F905F904F903F902F9008952F923F9219
:100D50004F925F926F927F928F929F92AF92BF92CB
:100D6000CF92DF92EF92FF920F931F93CF93DF9377
:100D7000CDB7DEB7CE54D1090FB6F894DEBF0FBEA3
:100D8000CDBF2F969FAF8EAF2F97498F5A8F6B8F06
:100D90007C8F0D8F1E8F2F8F38A3EB960EAD1FAD5E
:100DA000EB97ED962EAC3FACED97E996AEADBFADAF
:100DB000E9978D919D910D90BC91A02D89879A877F
:100DC000AB87BC87D8018D919D910D90BC91A02DD2
:100DD00089839A83AB83BC83D1018D919D910D90C2
:100DE000BC91A02D8D839E83AF83B887EF96AEAD67
:100DF000BFADEF978D919D910D90BC91A02D8D87EA
:100E00009E87AF87B88B9A01AB01CA01B9010E94D6
:100E100081202B013C012D8D3E8D4F8D58A1CA01A3
:100E2000B9010E9481209B01AC01C301B2010E9463
:100E3000B81D2B013C01A7019601C701B6010E9414
:100E400081209B01AC01C301B2010E94B81D0E9428
:100E5000FC202B013C0120E030E0A9010E94B11EE2
:100E6000882309F408C529853A854B855C85CA0124
:100E7000B9010E94B81D6DA77EA78FA798AB2981E5
:100E80003A814B815C81CA01B9010E94B81D69ABEE
:100E90007AAB8BAB9CAB2D813E814F815885CA01CB
:100EA000B9010E94B81D6DAB7EAB8FAB98AF2D859D
:100EB0003E854F855889CA01B9010E94B81D69AFA6
:100EC0007AAF8BAF9CAF20E030E040E850E469851A
:100ED0007A858B859C850E94812069A77AA78BA73C
:100EE0009CA720E030E040E850E469817A818B8162
:100EF0009C810E94812069A37AA38BA39CA320E0FC
:100F000030E040E850E46D817E818F8198850E94B9
:100F100081206DA37EA38FA398A720E030E040E05E
:100F200051E469817A818B819C810E948120219684
:100F30006CAF7DAF8EAF9FAF219720E030E040E0F7
:100F400051E46D817E818F8198850E948120259654
:100F50006CAF7DAF8EAF9FAF259729813A814B81D2
:100F60005C81CA01B9010E948120698B7A8B8B8BCD
:100F70009C8B2D813E814F815885CA01B9010E9409
:100F800081206D8B7E8B8F8B988F2D853E854F8535
:100F90005889CA01B9010E94812029966CAF7DAFA2
:100FA0008EAF9FAF2997A301920160E070E080E8C7
:100FB0009FE30E94BB1E2B013C019B01AC01698D8C
:100FC0007A8D8B8D9C8D0E948120698F7A8F8B8F7B
:100FD0009C8FA30192016D8D7E8D8F8D98A10E94B3
:100FE00081206D8F7E8F8F8F98A3A3019201C701FF
:100FF000B6010E9481202D966CAF7DAF8EAF9FAF62
:101000002D972D893E894F89588D69A57AA58BA585
:101010009CA50E9481206B017C01298D3A8D4B8D0E
:101020005C8D6DA97EA98FA998AD0E9481209B013E
:10103000AC01C701B6010E94B81D6B017C01298972
:101040003A894B895C8969A57AA58BA59CA50E94E4
:1010500081209B01AC01C701B6010E94B81D6B0144
:101060007C012D8D3E8D4F8D58A169A97AA98BA940
:101070009CA90E9481209B01AC01C701B6010E947E
:10108000B71D69A77AA78BA79CA729853A854B85A9
:101090005C85CA01B9010E94812020E030E040E86F
:1010A00050E40E9481206B017C0129962CAD3DAD5E
:1010B0004EAD5FAD299769A17AA18BA19CA10E9439
:1010C00081202B013C01298D3A8D4B8D5C8D69ADC2
:1010D0007AAD8BAD9CAD0E9481209B01AC01C30118
:1010E000B2010E94B71D2B013C0129813A814B813D
:1010F0005C81C701B6010E9481209B01AC01C30144
:10110000B2010E94B81D2B013C012D8D3E8D4F8DEB
:1011100058A16DA57EA58FA598A90E9481209B014D
:10112000AC01C301B2010E94B71D29A13AA14BA194
:101130005CA10E94B71D2B013C0129893A894B898A
:101140005C8921966CAD7DAD8EAD9FAD21970E94DF
:1011500081209B01AC01C301B2010E94B81D2B018B
:101160003C012D893E894F89588D21966CAD7DAD0E
:101170008EAD9FAD21970E9481209B01AC01C301E0
:10118000B2010E94B81D2B013C012D962CAD3DAD46
:101190004EAD5FAD2D9769A17AA18BA19CA10E9454
:1011A00081209B01AC01C301B2010E94B81D69A35B
:1011B0007AA38BA39CA32D813E814F815885C701C3
:1011C000B6010E9481206B017C01298D3A8D4B8DE7
:1011D0005C8D6DA57EA58FA598A90E9481209B019D
:1011E000AC01C701B6010E94B81D6B017C012996B4
:1011F0002CAD3DAD4EAD5FAD29976DA17EA18FA108
:1012000098A50E9481209B01AC01C701B6010E94F4
:10121000B81D6B017C012D8D3E8D4F8D58A169ADA0
:101220007AAD8BAD9CAD0E9481209B01AC01C701C2
:10123000B6010E94B71D2DA13EA14FA158A50E9445
:10124000B71D6B017C0129893A894B895C892596F8
:101250006CAD7DAD8EAD9FAD25970E9481209B0129
:10126000AC01C701B6010E94B81D6B017C012D893C
:101270003E894F89588D25966CAD7DAD8EAD9FAD65
:1012800025970E9481209B01AC01C701B6010E94F5
:10129000B81D6B017C012D962CAD3DAD4EAD5FAD03
:1012A0002D976DA17EA18FA198A50E9481209B0101
:1012B000AC01C701B6010E94B81D6DA37EA38FA328
:1012C00098A720E030E040E850E469897A898B896A
:1012D0009C890E9481202D853E854F8558890E94DA
:1012E00081206B017C01298D3A8D4B8D5C8D69A924
:1012F0007AA98BA99CA90E9481209B01AC01C701FE
:10130000B6010E94B71D6B017C0120E030E040E88F
:1013100050E46D897E898F89988D0E9481202D856A
:101320003E854F8558890E9481209B01AC01C701F1
:10133000B6010E94B81D6B017C012D8D3E8D4F8D35
:1013400058A16DA97EA98FA998AD0E9481209B010B
:10135000AC01C701B6010E94B71D6D8B7E8B8F8BD0
:10136000988F29A53AA54BA55CA5CA01B9010E9491
:1013700081206B017C0129A13AA14BA15CA1CA018A
:10138000B9010E9481209B01AC01C701B6010E94F6
:10139000B81D6B017C012DA13EA14FA158A5CA012A
:1013A000B9010E9481209B01AC01C701B6010E94D6
:1013B000B81D6B017C012D893E894F89588DCA016A
:1013C000B9010E9481209B01AC01C701B6010E94B6
:1013D000B81D0E94FC209B01AC0160E070E080E839
:1013E0009FE30E94BB1E698B7A8B8B8B9C8B2F9605
:1013F000EEADFFAD2F97C284D384E484F584698178
:101400007A818B819C819058A50194010E94812052
:101410002B013C01A7962CAD3DAD4EAD5FADA7971E
:101420006D817E818F8198850E9481209B01AC0116
:10143000C301B2010E94B71D2B013C01AB962CAD3C
:101440003DAD4EAD5FADAB976D857E858F8598893F
:101450000E9481209B01AC01C301B2010E94B71D13
:1014600020E030E040E05FE30E9481202B013C015E
:1014700029893A894B895C8969A57AA58BA59CA5A0
:101480000E9481209B01AC01C701B6010E9481200E
:101490009B01AC01C301B2010E94B71DC158DF4FCF
:1014A000288139814A815B81CF57D0400E948120B9
:1014B0009B01AC0169857A858B859C850E94B81D4E
:1014C000E996AEADBFADE9976D937D938D939C93F7
:1014D0001397A501940169857A858B859C850E9467
:1014E00081202B013C01AB962CAD3DAD4EAD5FADE7
:1014F000AB976D817E818F8198850E9481209B01B1
:10150000AC01C301B2010E94B81D2B013C01A7969A
:101510002CAD3DAD4EAD5FADA7976D857E858F85BA
:1015200098890E9481209B01AC01C301B2010E94F5
:10153000B71D20E030E040E05FE30E9481202B01F6
:101540003C0129893A894B895C8969A17AA18BA1DF
:101550009CA10E9481209B01AC01C701B6010E94A1
:1015600081209B01AC01C301B2010E94B71DC1588B
:10157000DF4F288139814A815B81CF57D0400E945B
:1015800081209B01AC01F80160817181828193818E
:101590000E94B81DD8016D937D938D939C931397F2
:1015A000A7962CAD3DAD4EAD5FADA79769857A8509
:1015B0008B859C850E9481202B013C01AB962CAD34
:1015C0003DAD4EAD5FADAB9769817A818B819C81DA
:1015D0000E9481209B01AC01C301B2010E94B71D92
:1015E0002B013C01A50194016D857E858F8598892D
:1015F0000E9481209B01AC01C301B2010E94B81D71
:1016000020E030E040E05FE30E9481202B013C01BC
:1016100029893A894B895C896DA17EA18FA198A502
:101620000E9481209B01AC01C701B6010E9481206C
:101630009B01AC01C301B2010E94B71DC158DF4F2D
:10164000288139814A815B81CF57D0400E94812017
:101650009B01AC01F10160817181828193810E94C3
:10166000B81DD1016D937D938D939C931397AB9689
:101670002CAD3DAD4EAD5FADAB9769857A858B8561
:101680009C850E9481202B013C01A7962CAD3DAD8D
:101690004EAD5FADA79769817A818B819C810E9455
:1016A00081209B01AC01C301B2010E94B81D2B0136
:1016B0003C01A50194016D817E818F8198850E94F6
:1016C00081209B01AC01C301B2010E94B71D20E043
:1016D00030E040E05FE30E9481202B013C0129893A
:1016E0003A894B895C896D897E898F89988D0E94A2
:1016F00081209B01AC01C701B6010E9481209B01A2
:10170000AC01C301B2010E94B71DC158DF4F28814F
:1017100039814A815B81CF57D0400E948120EF966A
:10172000EEADFFADEF9720813181428153810E9460
:10173000B81D6B017C01EF96AEADBFADEF976D9319
:101740007D938D939C931397E996EEADFFADE9974A
:101750004080518062807380D8018D909D90AD90C3
:10176000BC90D1018D919D910D90BC91A02D89834C
:101770009A83AB83BC83A3019201C301B2010E948F
:1017800081206D837E838F839887A5019401C50195
:10179000B4010E9481209B01AC016D817E818F810B
:1017A00098850E94B81D4B015C0129813A814B81CB
:1017B0005C81CA01B9010E9481209B01AC01C50175
:1017C000B4010E94B81D4B015C01A7019601C7013D
:1017D000B6010E9481209B01AC01C501B4010E94A9
:1017E000B81D0E94FC209B01AC0160E070E080E825
:1017F0009FE30E94BB1E6B017C019B01AC01C301F6
:10180000B2010E948120E996EEADFFADE9976083B9
:10181000718382839383A7019601D8016D917D9195
:101820008D919C910E948120F80160837183828355
:101830009383A7019601D1016D917D918D919C912A
:101840000E948120F1016083718382839383A701C9
:101850009601EF96AEADBFADEF976D917D918D91F5
:101860009C910E948120EF96EEADFFADEF976083D3
:10187000718382839383C25BDF4F0FB6F894DEBF20
:101880000FBECDBFDF91CF911F910F91FF90EF90D1
:10189000DF90CF90BF90AF909F908F907F906F9090
:1018A0005F904F903F902F900895CF93DF93EC017E
:1018B00022962FEF42E369E6CE010E948B1342E3AA
:1018C00069E6CE01DF91CF910C94F113262F683099
:1018D00008F024E0FC01278B40E169E602960C94B5
:1018E0008B13FC01262F6130C9F0E8F0623089F0DB
:1018F000633051F081E79DEBA9E7BBE3808F918FC7
:10190000A28FB38F24E017C080E090ECA9EFBBE377
:101910000EC080E090ECA9E7BCE309C080E090EC49
:10192000A9EFBCE304C080E090ECA9E7BDE3808FA1
:10193000918FA28FB38F268B4FE069E6CF0102967D
:101940000C948B131F920F920FB60F9211242F93AA
:101950008F939F93EF93FF9380916F008B7F809382
:101960006F00809181008F7B80938100809134058E
:1019700020917304205890917204893020F4969538
:10198000922B8F5FFACF90937204809133058F5F13
:10199000803508F080E020913205821739F0E82F79
:1019A000F0E0EC58FB4F90838093330510923405A0
:1019B000809181008F7B8093810010927304FF914E
:1019C000EF919F918F912F910F900FBE0F901F90CD
:1019D00018951F920F920FB60F9211242F933F93D9
:1019E0004F935F936F937F938F939F93AF93BF9327
:1019F000EF93FF938091860090918700409173044C
:101A000020918100442331F02F7B2093810010929C
:101A1000730406C020642093810020E8209373049F
:101A200030913405311125C041116CC0209135052C
:101A300030913605280F391F30938B0020938A0090
:101A400024E026BB20916F00246020936F0020913A
:101A5000370530913805820F931F36952795820FF1
:101A6000931F909371048093700481E080933405F8
:101A700049C0409170045091710460913705709194
:101A80003805DB01A095B095E091730420917204B4
:101A9000841B950BA817B90768F126952E2B460FC6
:101AA000571F3F5F861B970B3930A0F320937204BA
:101AB00080916F008B7F80936F00809133058F5FE3
:101AC000803508F080E090913205891749F0E82FC1
:101AD000F0E090917204EC58FB4F908380933305B3
:101AE000809181008F7B809381001092730410920B
:101AF000340508C02093720450937104409370041D
:101B000030933405FF91EF91BF91AF919F918F91E9
:101B10007F916F915F914F913F912F910F900FBEE9
:101B20000F901F9018951F920F920FB60F921124CD
:101B30002F933F934F935F936F937F938F939F93D5
:101B4000EF93FF938091310560916F04209188009D
:101B500030918900409137055091380590916E047D
:101B60008A30F8F4240F351F893019F0762F717000
:101B700001C071E066958F5F791791F390918000B5
:101B8000772311F0906C02C09F739068909380004F
:101B9000309389002093880070936E0460936F04E3
:101BA0004AC090913005E0912F059E1319C08A30EC
:101BB00051F48BE080933105240F351F3093890059
:101BC000209388003AC010923105809180008F7375
:101BD0008093800080916F008D7F80936F002DC077
:101BE000EF5FE43408F0E0E0E0932F05F0E0E65D1D
:101BF000FB4F908190936F0410926E04909180003F
:101C00009F739068909380008A3059F480913705D3
:101C100090913805280F391F309389002093880050
:101C200009C080918400909185004096909389002E
:101C30008093880081E080933105FF91EF919F911F
:101C40008F917F916F915F914F913F912F910F9065
:101C50000FBE0F901F90189578941F920F920FB699
:101C60000F921124CF92DF92FF920F931F932F9325
:101C70003F934F935F936F937F938F939F93AF9314
:101C8000BF93CF93DF93EF93FF938091C70490911D
:101C9000C804A091C904B091CA040196A11DB11D48
:101CA0008093C7049093C804A093C904B093CA0456
:101CB0008091C5049091C604892B29F4C0E0DBE033
:101CC000FF24F39429C080916000806480936000B9
:101CD0008091C404882391F3809128049091290471
:101CE000019790932904809328048091280490916F
:101CF0002904892B09F0AAC0809160008F7B809312
:101D00006000A4C0DC9F8001112405531B4FF80123
:101D10008285811106C0CF5F80912E05C81790F390
:101D200095C08091C7049091C804A091C904B09156
:101D3000CA044681578160857185841B950BA60B6B
:101D4000B70BB7FDE8CF8091C5049091C60490937E
:101D5000290480932804F092C404C080D180F60145
:101D600009951092C404F8018285823009F058C0A8
:101D7000C0E0DC9FD0011124A553BB4F8D919C91F5
:101D80008C159D0529F0CF5F80912E058C1788F763
:101D900080912E05C817D9F180912E058230E8F187
:101DA0008C2F90912E05891790F5282F30E0A901EE
:101DB0004F5F5F4FD49FD001D59FB00D1124A55325
:101DC000BB4F4D915C911197D29FF001D39FF00DC5
:101DD0001124E553FB4F518340831A969C911A9727
:101DE000928712964D915D916D917C9115974283EA
:101DF00053836483758316964D915D916D917C91AB
:101E0000199746835783608771878F5FCACF809108
:101E10002E05815080932E057ECF10922E057BCF0C
:101E20008091C7049091C804A091C904B091CA04DC
:101E3000F8014281538164817581840F951FA61F2B
:101E4000B71F86839783A087B18765CFFF91EF91F6
:101E5000DF91CF91BF91AF919F918F917F916F91C2
:101E60005F914F913F912F911F910F91FF90DF90C4
:101E7000CF900F900FBE0F901F90189580E008959F
:101E8000DC011C96ED91FC911D97208116968C919A
:101E9000922F982381E009F480E00895FC01A08549
:101EA000B18586819C91611109C0892B8C93A08991
:101EB000B1899C9186818095892308C0809589236A
:101EC0008C93A089B1899C918681892B8C930895EC
:101ED000FC01A285B38587819C9161110CC0892B7F
:101EE0008C93A289B3899C918781809589238C9357
:101EF00020E63AEE17C0809589238C93A289B38996
:101F00009C918781892B8C93A685B785978120E644
:101F10003AEE8C91892331F42115310519F02150C5
:101F20003109F7CF81E0232B09F480E0089520E404
:101F3000629FC001112484688093BC0081E69AEE00
:101F40002091BC0027FD02C00197D1F78091B90014
:101F5000887F803511F4611109C08091B900887FB4
:101F6000883511F4662311F080E008958091BB005C
:101F700008956093BB0084E88093BC0081E69AEEEC
:101F80002091BC0027FD02C00197D1F79091B900C4
:101F9000987F81E0983209F080E00895660F640F21
:101FA0006093BB0084E88093BC0081E69AEE2091A8
:101FB000BC0027FD02C00197D1F78091B900887F4E
:101FC000803421F4442311F081E008959091B90008
:101FD000987F983119F481E08427089580E008956E
:101FE00084E98093BC0081E69AEE2091BC0024FD38
:101FF00002C00197D1F78BE490E00197F1F70895C3
:1020000084EA8093BC0081E69AEE2091BC0027FD13
:1020100002C00197D1F79091B900987F81E090318B
:1020200009F080E0089584EA8093BC0081E69AEE8E
:102030002091BC0027FD02C00197D1F79091B90013
:10204000987F81E0983009F080E00895EF92FF9248
:102050001F93CF93DF931F92CDB7DEB77C01DC01D6
:10206000ED91FC910688F789E02D698309956981D6
:10207000882369F0D701ED91FC91048CF58DE02D5A
:1020800040E0C7010995882321F012E003C010E069
:1020900001C011E0D701ED91FC91028CF38DE02D90
:1020A000C701099581E0123009F080E00F90DF91BF
:1020B000CF911F91FF90EF90089583E00895AF9224
:1020C000BF92DF92EF92FF920F931F93CF93DF9314
:1020D0001F92CDB7DEB75C01D42E152F022FDC0185
:1020E000ED91FC910688F789E02D69830995698156
:1020F000882301F1D501ED91FC91048CF58DE02D43
:1021000040E0C50109958823B9F0ED2CF12E12E0CD
:10211000002399F0F70161917F01D501ED91FC91C8
:10212000068CF78DE02DC5010995811101C010E0E5
:102130000150EECF10E001C011E0D501ED91FC910E
:10214000028CF38DE02DC501099581E0123009F074
:1021500080E00F90DF91CF911F910F91FF90EF9052
:10216000DF90BF90AF900895AF92BF92DF92EF9251
:10217000FF920F931F93CF93DF931F92CDB7DEB7DC
:102180005C01F42ED22E132FDC01ED91FC91068818
:10219000F789E02D698309956981882359F1D50173
:1021A000ED91FC91048CF58DE02D40E0C501099581
:1021B000882311F1D501ED91FC91068CF78DE02D6E
:1021C0006F2DC50109958823C9F0ED2CF12E13E080
:1021D0000023A9F0F70161917F01D501ED91FC91F8
:1021E000068CF78DE02DC5010995811101C010E025
:1021F0000150EECF10E003C011E001C012E0D501A4
:10220000ED91FC91028CF38DE02DC501099581E0E3
:10221000133009F080E00F90DF91CF911F910F9163
:10222000FF90EF90DF90BF90AF900895CF92DF9234
:10223000EF92FF920F931F93CF93DF931F92CDB72F
:10224000DEB76C017A01022FDC01ED91FC9106886A
:10225000F789E02D698309956981882341F1D601C9
:10226000ED91FC91048CF58DE02D41E0C6010995BE
:102270008823F9F012E00023E9F0D601ED91FC91FA
:1022800061E0023008F460E000A0F1A1E02DC60199
:102290000995F70181937F0101508091B9000023D6
:1022A00021F080FFE8CF10E0E6CF80FF03C010E010
:1022B00001C011E0D601ED91FC91028CF38DE02D6F
:1022C000C601099581E0123009F080E00F90DF919E
:1022D000CF911F910F91FF90EF90DF90CF900895D5
:1022E000DF92EF92FF920F931F93CF93DF93EC0156
:1022F000162FD42E7901E881F9810688F789E02D1F
:102300000995882309F445C0E881F981048CF58D8D
:10231000E02D40E0612FCE0109958823E1F1E881AD
:10232000F981068CF78DE02D6D2DCE01099588235E
:10233000A1F1E881F981008CF18DE02DCE010995A4
:10234000882369F1E881F981048CF58DE02D41E065
:10235000612FCE010995882321F115E0002311F1A9
:10236000E881F98161E0023008F460E000A0F1A1A9
:10237000E02DCE010995F70181937F0101508091F5
:10238000B900002321F080FFE9CF10E0E7CF80FF04
:1023900009C010E007C011E005C012E003C013E05F
:1023A00001C014E0E881F981028CF38DE02DCE01AB
:1023B000099581E0153009F080E0DF91CF911F9100
:1023C0000F91FF90EF90DF9008958F929F92AF92C0
:1023D000BF92DF92EF92FF920F931F93CF93DF9301
:1023E00000D000D000D0CDB7DEB77C01162F06E0BC
:1023F0009E012F5F3F4F42E069E602960E947011F6
:10240000D82E882309F47FC0113049F445E3842E87
:102410004AEF942E4EE8A42E4CE3B42E06C0812C35
:10242000912C30E8A32E3FE3B32ED7015C960D919B
:102430001C915D976A8170E0762F66278981682BF1
:10244000072E000C880B990B0E942F1FF701208D7F
:10245000318D428D538D0E948120A50194010E94EF
:102460008120D8016D937D938D939C931397F701F1
:10247000068D178D6C8170E0762F66278B81682B17
:10248000072E000C880B990B0E942F1FD70158961E
:102490002D913D914D915C915B970E948120A5010A
:1024A00094010E948120F801608371838283938369
:1024B000D70190960D911C9191976E8170E0762FC7
:1024C00066278D81682B072E000C880B990B0E94C4
:1024D0002F1FF701208D318D428D538D0E94812059
:1024E000A50194010E948120D8016D937D938D9365
:1024F0009C931397D7019296ED91FC91939710823C
:102500001182128213828D2D26960FB6F894DEBFAB
:102510000FBECDBFDF91CF911F910F91FF90EF9034
:10252000DF90BF90AF909F908F9008958F929F9271
:10253000AF92BF92DF92EF92FF920F931F93CF93D0
:10254000DF93CDB7DEB727970FB6F894DEBF0FBE87
:10255000CDBF7C01162F07E09E012F5F3F4F42E069
:1025600069E102960E947011D82E882309F4ABC04D
:10257000898180FFA7C09B8190FFA4C09D8190FFAF
:10258000A1C0EFEFE10FE33058F494E0E99FF001D0
:102590001124E95FFE4F80809180A280B38008C043
:1025A00053EC852E55EF952E5CE1A52E51E4B52E0A
:1025B000F701048D158D9A81682F70E0792B84E0E6
:1025C000759567958A95E1F7072E000C880B990B96
:1025D0000E942F1FF701208D318D428D538D0E9457
:1025E0008120A50194010E948120F80160837183FC
:1025F00082839383F701068D178D6C8170E0762FAF
:1026000066278B81682B24E0759567952A95E1F7FD
:10261000072E000C880B990B0E942F1FF701208DAD
:10262000318D428D538D0E948120A50194010E941D
:102630008120F8016083718382839383F70100A175
:1026400011A16E8170E0762F66278D81682B44E0A2
:10265000759567954A95E1F7072E000C880B990B45
:102660000E942F1FF701208D318D428D538D0E94C6
:102670008120A50194010E948120F801608371836B
:1026800082839383F70102A113A18F81682F782F92
:10269000770F770B072E000C880B990B0E942F1FCA
:1026A00020E030E040E05FE30E94812020E030E065
:1026B00048EB51E40E94B81DF80160837183828366
:1026C000938301C001C08D2D27960FB6F894DEBF0D
:1026D0000FBECDBFDF91CF911F910F91FF90EF9073
:1026E000DF90BF90AF909F908F900895CF93DF932E
:1026F0001F92CDB7DEB74983DC01ED91FC910088D4
:10270000F189E02D21E0AE014F5F5F4F09950F90F9
:10271000DF91CF9108950F93CF93DF931F92CDB7A1
:10272000DEB72983DC01ED91FC910484F585E02D71
:1027300001E09E012F5F3F4F09950F90DF91CF91F0
:102740000F910895262F38EF360F383010F06111B1
:1027500028E0FC01278B40E169E102960C948B1381
:10276000FC01262F683099F06C30B1F0653051F0E3
:1027700080E090E0A0E8BAE3808F918FA28FB38FC2
:1027800023E012C080E090E0A0E0BBE309C080E05D
:1027900090E0A0E8BBE304C080E090E0A0E0BCE3F0
:1027A000808F918FA28FB38F268B4FE069E1CF018D
:1027B00002960C948B13CF93DF931F92CDB7DEB7A5
:1027C0001982DC01ED91FC910684F785E02D21E072
:1027D000AE014F5F5F4F099589810F90DF91CF91D7
:1027E00008950F93CF93DF931F92CDB7DEB7198271
:1027F000DC01ED91FC910284F385E02D01E09E0166
:102800002F5F3F4F099589810F90DF91CF910F91F5
:102810000895089580E090E00895CF93DF93EC0150
:10282000229620E846E369E1CE010E948B1320E264
:1028300047E369E1CE010E948B1320E246E369E1A0
:10284000CE010E948B1346E369E1CE010E94F11391
:102850006AE070E080E090E00E946A1A20E446E3BB
:1028600069E1CE010E948B1346E369E1CE010E942B
:10287000F1136AE070E080E090E00E946A1A20E6BE
:1028800046E369E1CE010E948B1346E369E1CE0184
:102890000E94F1136AE070E080E090E0DF91CF9158
:1028A0000C946A1A2F923F924F925F926F927F928E
:1028B0008F929F92AF92BF92CF92DF92EF92FF9250
:1028C0000F931F93CF93DF93CDB7DEB72E970FB63D
:1028D000F894DEBF0FBECDBF9E878D878C010E5F43
:1028E0001F4F40E069E1C8010E94F1138A3F09F0DF
:1028F0009CC1AD85BE8556963C905697ED91FC9156
:1029000011970680F781E02D68E0CD010995ED85EE
:10291000FE8527880190F081E02D0084F185E02D6F
:1029200068E08D859E85099521E142E369E1C80152
:102930000E948B1364EF71E080E090E00E946A1ABD
:10294000AD85BE85ED91FC9111970480F581E02D58
:1029500061E0CD010995882399F320E042E369E124
:10296000C8010E948B1364EF71E080E090E00E9448
:102970006A1AAD85BE85ED91FC9111970480F581B1
:10298000E02D61E0CD010995882399F36CED75E0A8
:1029900080E090E00E946A1A21E142E369E1C80107
:1029A0000E948B1364EF71E080E090E00E946A1A4D
:1029B000AD85BE85ED91FC9111970480F581E02DE8
:1029C00061E0CD010995882399F3AD85BE855C96BC
:1029D000ED91FC915D97408051806280738022E18F
:1029E00042E369E1C8010E948B1364EF71E080E06B
:1029F00090E00E946A1AAD85BE85ED91FC91119719
:102A00000480F581E02D61E0CD010995882399F3DB
:102A1000ED85FE85268D378DD9018D919D910D9087
:102A2000BC91A02D89839A83AB83BC8323E142E3CD
:102A300069E1C8010E948B1364EF71E080E090E0CF
:102A40000E946A1AAD85BE85ED91FC9111970480B4
:102A5000F581E02D61E0CD010995882399F3ED859D
:102A6000FE8520A131A1D9018D919D910D90BC9140
:102A7000A02D8D839E83AF83B88725E142E369E172
:102A8000C8010E948B1364EF71E080E090E00E9427
:102A90006A1AAD85BE85ED91FC9111970480F58190
:102AA000E02D61E0CD010995882399F3AD85BE85C0
:102AB0005C96ED91FC915D9780809180A280B380BF
:102AC00026E142E369E1C8010E948B1364EF71E0E3
:102AD00080E090E00E946A1AAD85BE85ED91FC9180
:102AE00011970480F581E02D61E0CD0109958823DF
:102AF00099F3ED85FE85268D378DD9018D919D91B8
:102B00000D90BC91A02D89879A87AB87BC8727E160
:102B100042E369E1C8010E948B1364EF71E080E039
:102B200090E00E946A1AAD85BE85ED91FC911197E7
:102B30000480F581E02D61E0CD010995882399F3AA
:102B4000AD85BE859096ED91FC919197C080D18026
:102B5000E280F38020E042E369E1C8010E948B1328
:102B600064EF71E080E090E00E946A1AAD85BE8556
:102B7000ED91FC9111970480F581E02D61E0CD018C
:102B80000995882399F3A5019401C301B2010E941C
:102B9000B71D20E030E048E454E40E94B11E182F35
:102BA000111F1127111F110F110F29853A854B8510
:102BB0005C8569817A818B819C810E94B71D20E0B0
:102BC00030E048E454E40E94B11E87FD14E02D81FA
:102BD0003E814F815885C701B6010E94B71D20E094
:102BE00030E048EC53E40E94B11E87FD14E0AD854F
:102BF000BE85ED91FC9111970680F781E02D632D44
:102C0000CD010995AD85BE85ED91FC9111970084AC
:102C1000F185E02D622DCD01099564E670E080E03C
:102C200090E00E946A1A812F01C081E02E960FB6B3
:102C3000F894DEBF0FBECDBFDF91CF911F910F91F2
:102C4000FF90EF90DF90CF90BF90AF909F908F90CC
:102C50007F906F905F904F903F902F9008950F93CB
:102C60001F93CF938C010E5F1F4F40E069E6C801B0
:102C70000E94F1138F30F1F421E04CE369E6C801C2
:102C80000E948B134CE369E1C8010E94F113C82F25
:102C90006AE070E080E090E00E946A1AC1FDF2CF25
:102CA0008C2F8470C2FF07C080E892E00E944B190D
:102CB00085E001C082E0CF911F910F9108950F939D
:102CC0001F93CF93DF9300D000D0CDB7DEB78C0138
:102CD0009A01AB0160E0FC01828129833A834B8336
:102CE0005C830E94AA1961E0F80182810E945E194A
:102CF00060E0F80183810E94AA1961E0F8018381F4
:102D00000E945E19A8EEB3E029813A814B815C8173
:102D10000E947D219B01AC0160E074E284EF90E0B1
:102D20000E945521DA01C9014097A109B109B69560
:102D3000A795979587958093B8008091B8008A30C1
:102D400018F48AE08093B8008091B9008C7F80935A
:102D5000B9000F900F900F900F90DF91CF911F91BE
:102D60000F910895BF92CF92DF92EF92FF920F934F
:102D70001F93CF93DF93CDB7DEB76C01B62EDC0186
:102D80005D965C934E935C975F963C932E935E9713
:102D900091961C930E9390979396FC92EE92929735
:102DA0008C010E5F1F4F44E650E060E070E0C80108
:102DB0000E945F1640E069E6C8010E94F1138F305F
:102DC000C9F526EB44E169E6C8010E948B1364E66D
:102DD00070E080E090E00E946A1A20E041E169E63C
:102DE000C8010E948B13D601ED91FC9111970680CA
:102DF000F781E02D56966C91C6010995D601ED91AB
:102E0000FC9111970084F185E02D57966C91C601D5
:102E1000099520E043E169E6C8010E948B13BB20BD
:102E200059F0D601ED91FC910284F385E02DC601A5
:102E3000099502C080E001C081E0DF91CF911F9130
:102E40000F91FF90EF90DF90CF90BF900895BF92C9
:102E5000CF92DF92EF92FF920F931F93CF93DF9366
:102E6000CDB7DEB76C01B62EDC015D965C934E9358
:102E70005C975F963C932E935E9791961C930E936E
:102E800090979396FC92EE9292978C010E5F1F4F53
:102E900044E650E060E070E0C8010E945F1640E048
:102EA00069E1C8010E94F1138A3FC9F526EB44E1AC
:102EB00069E1C8010E948B1364E670E080E090E055
:102EC0000E946A1A20E041E169E1C8010E948B1367
:102ED000D601ED91FC9111970680F781E02D569671
:102EE0006C91C6010995D601ED91FC911197008472
:102EF000F185E02D57966C91C601099520E043E1DC
:102F000069E1C8010E948B13BB2059F0D601ED91F5
:102F1000FC910284F385E02DC601099502C080E092
:102F200001C081E0DF91CF911F910F91FF90EF9051
:102F3000DF90CF90BF900895CF92DF92EF92FF92F3
:102F40000F931F93CF93DF936C017A018B01C0E045
:102F5000D0E0CE15DF0589F0D8016D918D01D60145
:102F6000ED91FC910190F081E02DC6010995892B2E
:102F700011F47E0102C02196ECCFC701DF91CF9101
:102F80001F910F91FF90EF90DF90CF900895FC017B
:102F9000538D448D252F30E0842F90E0821B930BBE
:102FA000541710F0CF96089501970895FC01918D64
:102FB000828D981761F0828DDF01A80FB11D5D969B
:102FC0008C91928D9F5F9F73928F90E008958FEF09
:102FD0009FEF0895FC01918D828D981731F0828DBD
:102FE000E80FF11D858D90E008958FEF9FEF089514
:102FF000FC01918D228D892F90E0805C9F4F821B78
:1030000091098F73992708958AE395E00E94F81734
:1030100021E0892B09F420E0822F0895FC01848DA2
:10302000DF01A80FB11DA35ABF4F2C91848D90E0F2
:1030300001968F739927848FA689B7892C93A089CD
:10304000B1898C9180648C93938D848D981306C084
:103050000288F389E02D80818F7D80830895EF922F
:10306000FF920F931F93CF93DF93EC0181E0888F42
:103070009B8D8C8D981305C0E889F989808185FD29
:1030800024C0F62E0B8D10E00F5F1F4F0F7311271A
:10309000E02E8C8DE8120CC00FB607FCFACFE88941
:1030A000F989808185FFF5CFCE010E940E18F1CFFE
:1030B0008B8DFE01E80FF11DE35AFF4FF0820B8F5D
:1030C000EA89FB898081806207C0EE89FF8960837D
:1030D000E889F98980818064808381E090E0DF91D4
:1030E000CF911F910F91FF90EF900895CF93DF93B1
:1030F000EC01888D8823C9F0EA89FB89808185FDF0
:1031000005C0A889B9898C9186FD0FC00FB607FC50
:10311000F5CF808185FFF2CFA889B9898C9185FF91
:10312000EDCFCE010E940E18E7CFDF91CF91089529
:1031300080E090E0892B29F00E94041881110C9402
:10314000000008955091330540913205852F90E09D
:10315000242F30E0541710F4805B9F4F821B930B99
:10316000089580913305E09132058E1751F0EF5F9D
:10317000E03508F0E0E0F0E0EC58FB4F808190E0B3
:1031800008958FEF9FEF0895809133059091320558
:10319000891769F09F5F903508F090E0E92FF0E023
:1031A000EC58FB4F80819093320590E008958FEFAB
:1031B0009FEF08950E94C4226115710579F0FB010B
:1031C00001900020E9F73197AF01461B570BDC0156
:1031D000ED91FC910280F381E02D099480E090E074
:1031E00008950C94DC181F920F920FB60F921124C1
:1031F0002F933F934F935F936F937F938F939F93FF
:10320000AF93BF93EF93FF938AE395E00E940E186C
:10321000FF91EF91BF91AF919F918F917F916F91AE
:103220005F914F913F912F910F900FBE0F901F9084
:1032300018951F920F920FB60F9211242F938F9310
:103240009F93EF93FF93E0914A05F0914B058081A6
:10325000E0915005F091510582FD12C0908180915E
:1032600053058F5F8F7320915405821751F0E091C1
:103270005305F0E0E65CFA4F958F8093530501C04B
:103280008081FF91EF919F918F912F910F900FBEB1
:103290000F901F901895CF93DF93BC018AE395E0C0
:1032A0000E94DC18EC016AE074E08AE395E00E9479
:1032B000DC188C0F9D1FDF91CF91089590E0FC01E9
:1032C000E65CFE4F3491FC01EA5DFE4F2491FC0167
:1032D000EE5EFE4FE491EE2309F43BC0332339F157
:1032E000333091F038F43130A9F0323001F584B543
:1032F0008F7D12C0373091F03830A1F03430B9F4FE
:10330000809180008F7D03C0809180008F778093B3
:1033100080000DC084B58F7784BD09C08091B00056
:103320008F7703C08091B0008F7D8093B000F0E074
:10333000EE0FFF1FE85FFE4FA591B4918FB7F89491
:10334000EC91611103C020952E2301C02E2B2C93EC
:103350008FBF0895CF93DF9390E0FC01EA5DFE4FAD
:103360002491FC01EE5EFE4F8491882361F190E090
:10337000880F991FFC01E250FF4FC591D491FC01C9
:10338000E85FFE4FA591B491611109C09FB7F89411
:103390008881209582238883EC912E230BC0623094
:1033A00061F49FB7F8943881822F809583238883B6
:1033B000EC912E2B2C939FBF06C08FB7F894E88119
:1033C0002E2B28838FBFDF91CF9108951F93CF932A
:1033D000DF93182FEB0161E00E94AA19209711F4E6
:1033E00060E004C0CF3FD10539F461E0812FDF9167
:1033F000CF911F910C945E19E12FF0E0E65CFE4F37
:10340000E491E330F9F048F4E130B9F0E230A1F5AD
:1034100084B5806284BDC8BD34C0E730E9F0E830CF
:1034200019F1E43049F5809180008062809380003A
:10343000D0938B00C0938A0024C084B5806884BD7B
:10344000C7BD1FC080918000806880938000D093AA
:103450008900C093880015C08091B0008068809377
:10346000B000C093B3000DC08091B0008062809323
:10347000B000C093B40005C0C038D1050CF0B5CF82
:10348000AFCFDF91CF911F9108953FB7F89480910E
:103490000C0690910D06A0910E06B0910F0626B570
:1034A000A89B05C02F3F19F00196A11DB11D3FBF7C
:1034B000BA2FA92F982F8827820F911DA11DB11D0A
:1034C000BC01CD0142E0660F771F881F991F4A9506
:1034D000D1F708958F929F92AF92BF92CF92DF92D1
:1034E000EF92FF926B017C010E94451A4B015C0137
:1034F000C114D104E104F104F1F00E94451ADC0189
:10350000CB0188199909AA09BB09883E9340A105F6
:10351000B10570F321E0C21AD108E108F10888EE84
:10352000880E83E0981EA11CB11CC114D104E104D3
:10353000F10419F7DDCFFF90EF90DF90CF90BF90AF
:10354000AF909F908F9008951F920F920FB60F9299
:1035500011242F933F938F939F93AF93BF938091A9
:10356000080690910906A0910A06B0910B063091C9
:10357000070623E0230F2D3720F40196A11DB11D6E
:1035800005C026E8230F0296A11DB11D2093070652
:103590008093080690930906A0930A06B0930B0641
:1035A00080910C0690910D06A0910E06B0910F0629
:1035B0000196A11DB11D80930C0690930D06A0935A
:1035C0000E06B0930F06BF91AF919F918F913F91DF
:1035D0002F910F900FBE0F901F90189583E991E0E7
:1035E0009093FC058093FB0580916F008B7F809307
:1035F0006F0080916F008F7D80936F008091320506
:1036000080933305809131058111FCCF80916F004B
:103610008D7F80936F000895789484B5826084BD17
:1036200084B5816084BD85B5826085BD85B58160C6
:1036300085BD80916E00816080936E001092810044
:1036400080918100826080938100809181008160FF
:1036500080938100809180008160809380008091C0
:10366000B10084608093B1008091B000816080934C
:10367000B00080917A00846080937A0080917A0013
:10368000826080937A0080917A00816080937A00D2
:1036900080917A00806880937A001092C100E09156
:1036A0004A05F0914B0582E08083E0914605F09158
:1036B00047051082E0914805F09149058FEC808321
:1036C00010925205E0914E05F0914F0586E08083FF
:1036D000E0914C05F0914D05808180618083E091FF
:1036E0004C05F0914D05808188608083E0914C0508
:1036F000F0914D05808180688083E0914C05F091C8
:103700004D0580818F7D80836AE872E08AE395E0D1
:103710000E94F11885E992E00E944B1962EA72E07A
:103720008AE395E00E94F1188DEA92E00E944B191D
:1037300083E992E00E944B191092C6041092C504CE
:1037400014BE0FB6F894A8958091600088618093AC
:103750006000109260000FBE8FB78F778FBF80918F
:10376000C5049091C604892B11F088E401C080E45F
:1037700098E190936000809360008FB780688FBF5E
:1037800091E09093D70510922E051092C404809179
:10379000D705882329F080912E05893009F0B5C01E
:1037A00010926F001092800081E88093810083E87E
:1037B00096E090933805809337058BE39CE39093D4
:1037C00036058093350562E088E00E94AA1961E021
:1037D00089E00E945E1961E089E00E94AA191092B6
:1037E0003405109233051092320510923105109273
:1037F000300510922F0580E286BB80936F0089EB25
:1038000092E00E944B191092390561E08EE00E940F
:10381000AA1961E08FE00E94AA1961E081E10E948B
:10382000AA1961E080E10E94AA1961E086E00E9485
:10383000AA1961E085E00E94AA1960E08EE00E946A
:103840005E1960E08FE00E945E1960E081E10E94F5
:103850005E1960E080E10E945E198091F805909108
:10386000F905DC01ED91FC9124EF35E03F932F93B6
:103870000190F081E02D20EF822E25E0922E3CEE8B
:10388000A32E35E0B32E48EEC42E45E0D42E54EEE0
:10389000E52E55E0F52E00EE15E02CED35E048ED77
:1038A00055E060E009958091F8059091F905DC01FB
:1038B000ED91FC910280F381E02D09950F900F901E
:1038C00090E087309105D0F4FC01EC5CFF4F0C9444
:1038D00077218BED92E014C087E193E011C08FE275
:1038E00093E00EC083E493E00BC08AE593E008C048
:1038F00083E893E005C088EA93E002C080ED93E09E
:103900000E944B190E949818FDCF8FB78F778FBFF9
:10391000E0912E058BE08E9FF0011124E553FB4FC3
:1039200026E832E031832083E0912E058E9FF0015E
:103930001124E553FB4F9287E0912E058E9FF001F5
:103940001124E553FB4F46E050E060E070E0428315
:10395000538364837583E0912E054091C704509191
:10396000C8046091C9047091CA044A5F5F4F6F4FE9
:103970007F4F8E9FF0011124E553FB4F4683578301
:103980006087718780912E058F5F80932E058FB79A
:1039900080688FBF05CFCF92DF92EF92FF920F9397
:1039A0001F93CF93DF93EAE3F5E01382128288EE50
:1039B00093E0A0E0B0E084839583A683B78327E1FA
:1039C00031E03183208325EC30E03587248724ECF7
:1039D00030E03787268720EC30E0318B208B21ECDC
:1039E00030E0338B228B22EC30E0358B248B26ECBD
:1039F00030E0378B268B118E128E138E148EEBEFE8
:103A0000F5E01382128284839583A683B78383E9CA
:103A100091E0918380831092D705C8EDD5E018829C
:103A200019821A821B821C821D821E821F821886A6
:103A300019861A861B861C861D861E861F8680E0B8
:103A400090E0A0E8BFE3888B998BAA8BBB8B1C8A84
:103A50001D8A1E8A1F8A188E198E1A8E1B8E1C8E26
:103A60001D8E1E8E1F8E88E590E00E9497218C018E
:103A700081E891E0F80191838083E65BFF4F10823B
:103A800011821282138284E290E00E949721FC014D
:103A900089E291E0918380838BE3C82E81E0D82E68
:103AA000D382C28292E1E92EE48223E1F22EF582F2
:103AB00083E0868B88E0878B80E090E0A0E8BAE323
:103AC000808F918FA28FB38FD801AE5ABF4FED93E5
:103AD000FC9384E290E00E949721FC0187E691E04C
:103AE00091838083D382C282E482F58284E0868BD4
:103AF000878B81E79DEBA9E7BBE3808F918FA28F36
:103B0000B38FD801AC5ABF4FED93FC9382E190E0A4
:103B10000E949721FC0189E791E09183808383ECE7
:103B200098EBA2E3BFE382839383A483B5831682D9
:103B30001782108611868EE097ECAAE1BFE3828798
:103B40009387A487B58716861786108A118AD801AD
:103B5000AA5ABF4FED93FC9319A308A3DF91CF910D
:103B60001F910F91FF90EF90DF90CF9008955058E4
:103B7000BB27AA270E94CF1D0C942B200E94F21F66
:103B800038F00E94F91F20F039F49F3F19F426F411
:103B90000C94B41F0EF4E095E7FB0C94AE1FE92FD4
:103BA0000E94502058F3BA176207730784079507DD
:103BB00020F079F4A6F50C9472200EF4E0950B2E0B
:103BC000BA2FA02D0B01B90190010C01CA01A0016F
:103BD0001124FF27591B99F0593F50F4503E68F1CA
:103BE0001A16F040A22F232F342F4427585FF3CF0B
:103BF000469537952795A795F0405395C9F77EF4DC
:103C00001F16BA0B620B730B840BBAF09150A1F024
:103C1000FF0FBB1F661F771F881FC2F70EC0BA0FAA
:103C2000621F731F841F48F4879577956795B79532
:103C3000F7959E3F08F0B0CF9395880F08F099272D
:103C4000EE0F9795879508959F939F77EEE38937B9
:103C50009E0728F4E6E7F0E00E94DE1F0CC00E94F9
:103C60006A1F9058A2EA2AED3FE049EC5FE30E9408
:103C7000CF1D0E942B200F9007FC905808950E94A2
:103C8000F21F60F080E891E009F49EEF0E94F91FB6
:103C900028F040E851E071F45EEF0CC00C94B41FC2
:103CA0000C947220E92FE0780E94502040F3092EF6
:103CB000052AB1F3261737074807590738F00E2EA3
:103CC00007F8E02569F0E025E0640AC0EF6307F833
:103CD000009407FADB01B9019D01DC01CA01AD01C5
:103CE000EF930E94D21E0E942B200E94821E5F91A1
:103CF000552339F02BED3FE049E450FD49EC0C949D
:103D0000B81D0895DF93DD27B92FBF7740E85FE343
:103D10001616170648075B0718F4D92F0E9479205A
:103D20009F938F937F936F930E943C21EAE8F0E08A
:103D30000E94B71F0E942B202F913F914F915F91BE
:103D40000E949420DD2351F09058A2EA2AED3FE032
:103D500049EC5FE3D0785D270E94CF1DDF910C9482
:103D60002B200E948A1F08F481E008950E940220FF
:103D7000E3950C943C200E94CF1E0C942B200E94B3
:103D8000F91F58F00E94F21F40F029F45F3F29F01C
:103D90000C94AE1F51110C9473200C94B41F0E940C
:103DA000502068F39923B1F3552391F3951B550BDC
:103DB000BB27AA2762177307840738F09F5F5F4FFE
:103DC000220F331F441FAA1FA9F335D00E2E3AF03D
:103DD000E0E832D091505040E695001CCAF72BD055
:103DE000FE2F29D0660F771F881FBB1F26173707A6
:103DF0004807AB07B0E809F0BB0B802DBF01FF27D8
:103E000093585F4F3AF09E3F510578F00C94AE1FE7
:103E10000C9473205F3FE4F3983ED4F38695779536
:103E20006795B795F7959F5FC9F7880F911D969590
:103E3000879597F90895E1E0660F771F881FBB1FEC
:103E4000621773078407BA0720F0621B730B840B99
:103E5000BA0BEE1F88F7E0950895E89409C097FB28
:103E60003EF490958095709561957F4F8F4F9F4F51
:103E70009923A9F0F92F96E9BB279395F695879595
:103E800077956795B795F111F8CFFAF4BB0F11F458
:103E900060FF1BC06F5F7F4F8F4F9F4F16C08823FF
:103EA00011F096E911C0772321F09EE8872F762F35
:103EB00005C0662371F096E8862F70E060E02AF076
:103EC0009A95660F771F881FDAF7880F9695879562
:103ED00097F90895DF93CF931F930F938B01EC0114
:103EE000E7EBF0E00E94B71F0E942B209801AE0183
:103EF0008B01EC0160E070E080E89FE30E94B71D59
:103F00000E94FC209801AE010F911F91CF91DF918B
:103F10000C949420990F0008550FAA0BE0E8FEEFCF
:103F200016161706E807F907C0F012161306E4077D
:103F3000F50798F0621B730B840B950B39F40A2676
:103F400061F0232B242B252B21F408950A2609F454
:103F5000A140A6958FEF811D811D089597F99F6758
:103F600080E870E060E008959FEF80EC0895DF93B3
:103F7000CF931F930F93FF92EF92DF927B018C01FF
:103F8000689406C0DA2EEF010E949420FE01E894A6
:103F9000A5912591359145915591A6F3EF010E9488
:103FA000CF1DFE019701A801DA9469F7DF90EF9029
:103FB000FF900F911F91CF91DF9108959F938F9361
:103FC0007F936F93FF93EF939B01AC010E9481203D
:103FD000EF91FF910E94B71F2F913F914F915F91F9
:103FE0000C94812000240A94161617061806090658
:103FF000089500240A94121613061406050608955F
:104000000C94B41F0E945820D8F3E894E0E0BB273A
:104010009F57F0F02AED3FE049EC06C0EE0FBB0FD2
:10402000661F771F881F28F0B23A6207730784075C
:1040300028F0B25A620B730B840BE3959A9572F7D2
:10404000803830F49A95BB0F661F771F881FD2F710
:1040500090480C944221092E0394000C11F48823FB
:1040600052F0BB0F40F4BF2B11F460FF04C06F5F30
:104070007F4F8F4F9F4F0895EF93E0FF07C0A2EA55
:104080002AED3FE049EC5FEB0E94CF1D0E942B2000
:104090000F90039401FC9058EFEDF0E00C94DE1FBC
:1040A00057FD9058440F551F59F05F3F71F04795E9
:1040B000880F97FB991F61F09F3F79F087950895CE
:1040C000121613061406551FF2CF4695F1DF08C0ED
:1040D000161617061806991FF1CF8695710561050A
:1040E00008940895E894BB2766277727CB0197F9B2
:1040F00008959B01AC0160E070E080E89FE30C94C0
:10410000BB1E0E9494200C942B200E94F21F38F0BA
:104110000E94F91F20F0952311F00C94AE1F0C940F
:10412000B41F11240C9473200E94502070F3959FAB
:10413000C1F3950F50E0551F629FF001729FBB279E
:10414000F00DB11D639FAA27F00DB11DAA1F649F3A
:104150006627B00DA11D661F829F2227B00DA11DED
:10416000621F739FB00DA11D621F839FA00D611D73
:10417000221F749F3327A00D611D231F849F600D94
:10418000211D822F762F6A2F11249F5750409AF0BD
:10419000F1F088234AF0EE0FFF1FBB1F661F771F49
:1041A000881F91505040A9F79E3F510580F00C9414
:1041B000AE1F0C9473205F3FE4F3983ED4F38695D2
:1041C00077956795B795F795E7959F5FC1F7FE2BB4
:1041D000880F911D9695879597F908959F930E9452
:1041E00002200F9007FCEE5F0C943C2019F416F4AB
:1041F0000C94B41F0C9440210E945820B8F39923CA
:10420000C9F3B6F39F57550B87FF0E944E21002438
:10421000A0E640EA900180585695979528F4805C76
:10422000660F771F881F20F026173707480730F4DE
:10423000621B730B840B202931294A2BA6951794F6
:104240000794202531254A2758F7660F771F881FC6
:1042500020F026173707480730F4620B730B840BE6
:10426000200D311D411DA09581F7B901842F915872
:10427000880F9695879508959B01AC010C94812039
:104280009F3F31F0915020F4879577956795B795CA
:10429000880F911D9695879597F9089591505040F4
:1042A000660F771F881FD2F70895A1E21A2EAA1B66
:1042B000BB1BFD010DC0AA1FBB1FEE1FFF1FA217D6
:1042C000B307E407F50720F0A21BB30BE40BF50BD3
:1042D000661F771F881F991F1A9469F7609570955C
:1042E000809590959B01AC01BD01CF010895EE0F23
:1042F000FF1F0590F491E02D09940E948821A59F4D
:10430000900DB49F900DA49F800D911D11240895D0
:10431000A29FB001B39FC001A39F700D811D112406
:10432000911DB29F700D811D1124911D0895CF9391
:10433000DF938230910510F482E090E0E091120664
:10434000F091130620E030E0C0E0D0E0309711F1AA
:104350004081518148175907C0F04817590761F447
:1043600082819381209719F09B838A832BC090933D
:1043700013068093120626C02115310519F0421745
:10438000530718F49A01BE01DF01EF010280F381A7
:10439000E02DDCCF2115310509F1281B390B243024
:1043A000310590F412968D919C91139761157105CA
:1043B00021F0FB019383828304C0909313068093C2
:1043C0001206FD01329644C0FD01E20FF31F8193F6
:1043D0009193225031092D933C933AC020911006BD
:1043E00030911106232B41F42091030130910401F7
:1043F00030931106209310062091010130910201A3
:104400002115310541F42DB73EB74091050150917A
:104410000601241B350BE0911006F0911106E217FE
:10442000F307A0F42E1B3F0B2817390778F0AC01D7
:104430004E5F5F4F2417350748F04E0F5F1F5093B4
:104440001106409310068193919302C0E0E0F0E0E2
:10445000CF01DF91CF9108950F931F93CF93DF93F7
:10446000009709F48CC0FC013297138212820091EC
:104470001206109113060115110581F42081318176
:10448000820F931F209110063091110628173907CB
:1044900079F5F0931106E093100671C0D80140E061
:1044A00050E0AE17BF0750F412962D913C91139730
:1044B000AD012115310509F1D901F3CF9D01DA01D3
:1044C0003383228360817181860F971F8217930740
:1044D00069F4EC0128813981260F371F2E5F3F4F89
:1044E000318320838A819B8193838283452B29F4A6
:1044F000F0931306E093120642C01396FC93EE93DA
:104500001297ED01499159919E01240F351FE21731
:10451000F30771F480819181840F951F02961196A3
:104520009C938E938281938113969C938E93129782
:10453000E0E0F0E0D80112968D919C9113970097DE
:1045400019F0F8018C01F6CF8D919C9198012E5FA6
:104550003F4F820F931F20911006309111062817AC
:10456000390769F4309729F4109213061092120655
:1045700002C0138212821093110600931006DF917D
:10458000CF911F910F91089581E090E0F8940C94E1
:10459000D222FB01DC018D91019080190110D9F329
:1045A000990B089510E0C8EAD0E004C0FE010E9413
:0E45B00077212196C93AD107C9F7F894FFCFB9
:1045BE00FF0000140680000000803F0000B442DBC4
:1045CE000FC93F000000002F189C17C7177618F868
:1045DE0017D617EA1700000000271752149612B0CC
:1045EE0013A2130D143E0F000000005F16F1138B83
:1045FE0013DB1376137011B41016115F105D1026B5
:10460E001013100010F00FCE0FB90F970F680F4E4A
:10461E000F400F00000000B2162F16E511710C6648
:10462E000C550CEC0100000000A606EA010000008B
:10463E00005B013B017C033A0139011D01110100B0
:10464E00000000D8009C170A14D300A218C418B199
:10465E00183C542C526F76657220436F6E74726FD5
:10466E006C3E003C492C53532C312C4D41494E533A
:10467E003E003C492C53532C322C53544F503E0089
:10468E003C492C42542C312C4657442C4657443E20
:10469E00003C492C42542C322C4257442C42574455
:1046AE003E003C492C534C2C332C73706565642CA6
:1046BE0035302C3235352C323535323530323330CB
:1046CE003E003C522C353E003C454F493E00496E63
:1046DE00697420636F6D6D616E64732073656E74A3
:1046EE00003C442C534C2C312C35303E007265630B
:1046FE0065697665644368617273203D2000434F9F
:10470E004E4E454354005245534554005353313099
:10471E000053533131005353323000425431310083
:10472E003C442C53532C322C313E00425432310037
:10473E00626973745F6661696C00536B657463685C
:10474E003A202020002E2E5C726F7665722E696ED6
:10475E006F0055706C6F616465643A20004D617234
:10476E00203232203230313800416C74536F66740F
:10477E0053657269616C2073746172746564206133
:10478E00742039363030202A2A2A00C0EFEFE0F0AC
:10479E00E0F2EDEEE520F1E0ECEEF2E5F1F2E8F01C
:1047AE00EEE2E0EDE8E520E2F1E5F520E4E0F2F7F7
:1047BE00E8EAEEE220F3F1EFE5F8EDEE20EFF0EEB1
:1047CE00E9E4E5EDEE2100C0EAF1E5EBE5F0EEEC13
:1047DE00E5F2F020EDE520EDE0E9E4E5ED2E00C395
:1047EE00E8F0EEF1EAEEEF20EDE520EDE0E9E4E5AC
:1047FE00ED2E00CCE0E3EDE8F2EEECE5F2F020ED8C
:10480E00E520EDE0E9E4E5ED2E00C0EAF1E5EBE5AB
:10481E00F0EEECE5F2F020EDE520EFF0EEF8E5EB52
:10482E0020F1E0ECEEF2E5F1F2E8F0EEE2E0EDE898
:10483E00E52E00C3E8F0EEF1EAEEEF20EDE520EF15
:10484E00F0EEF8E5EB20F1E0ECEEF2E5F1F2E8F057
:10485E00EEE2E0EDE8E52E00CCE0E3EDE8F2EEEC82
:10486E00E5F2F020EDE520EFF0EEF8E5EB20F1E0DB
:10487E00ECEEF2E5F1F2E8F0EEE2E0EDE8E52E0026
:10488E00CCEEE4F3EBFC20EDE520EFF0EEF8E5EBFB
:10489E0020F1E0ECEEF2E5F1F2E8F0EEE2E0EDE828
:1048AE00E520EFEE20EDE5E8E7E2E5F1F2EDEEE9E9
:0E48BE0020EFF0E8F7E8EDE52E000D0A00000F
:00000001FF
